{
  "_format": "hh-sol-artifact-1",
  "contractName": "Marketplace",
  "sourceName": "contracts/Marketplace.sol",
  "abi": [
    {
      "inputs": [
        {
          "internalType": "string",
          "name": "name",
          "type": "string"
        },
        {
          "internalType": "string",
          "name": "version",
          "type": "string"
        },
        {
          "internalType": "address",
          "name": "initialOwner",
          "type": "address"
        },
        {
          "internalType": "address",
          "name": "_platformFeeRecipient",
          "type": "address"
        },
        {
          "internalType": "uint256",
          "name": "_platformFeePercent",
          "type": "uint256"
        }
      ],
      "stateMutability": "nonpayable",
      "type": "constructor"
    },
    {
      "inputs": [],
      "name": "ECDSAInvalidSignature",
      "type": "error"
    },
    {
      "inputs": [
        {
          "internalType": "uint256",
          "name": "length",
          "type": "uint256"
        }
      ],
      "name": "ECDSAInvalidSignatureLength",
      "type": "error"
    },
    {
      "inputs": [
        {
          "internalType": "bytes32",
          "name": "s",
          "type": "bytes32"
        }
      ],
      "name": "ECDSAInvalidSignatureS",
      "type": "error"
    },
    {
      "inputs": [],
      "name": "InvalidShortString",
      "type": "error"
    },
    {
      "inputs": [
        {
          "internalType": "address",
          "name": "owner",
          "type": "address"
        }
      ],
      "name": "OwnableInvalidOwner",
      "type": "error"
    },
    {
      "inputs": [
        {
          "internalType": "address",
          "name": "account",
          "type": "address"
        }
      ],
      "name": "OwnableUnauthorizedAccount",
      "type": "error"
    },
    {
      "inputs": [],
      "name": "ReentrancyGuardReentrantCall",
      "type": "error"
    },
    {
      "inputs": [
        {
          "internalType": "string",
          "name": "str",
          "type": "string"
        }
      ],
      "name": "StringTooLong",
      "type": "error"
    },
    {
      "anonymous": false,
      "inputs": [],
      "name": "EIP712DomainChanged",
      "type": "event"
    },
    {
      "anonymous": false,
      "inputs": [
        {
          "indexed": true,
          "internalType": "bytes32",
          "name": "orderHash",
          "type": "bytes32"
        },
        {
          "indexed": true,
          "internalType": "address",
          "name": "nftAddress",
          "type": "address"
        },
        {
          "indexed": true,
          "internalType": "uint256",
          "name": "tokenId",
          "type": "uint256"
        },
        {
          "indexed": false,
          "internalType": "address",
          "name": "user",
          "type": "address"
        }
      ],
      "name": "OrderCancelled",
      "type": "event"
    },
    {
      "anonymous": false,
      "inputs": [
        {
          "indexed": true,
          "internalType": "bytes32",
          "name": "orderHash",
          "type": "bytes32"
        },
        {
          "indexed": true,
          "internalType": "address",
          "name": "seller",
          "type": "address"
        },
        {
          "indexed": true,
          "internalType": "address",
          "name": "buyer",
          "type": "address"
        },
        {
          "indexed": false,
          "internalType": "address",
          "name": "nftAddress",
          "type": "address"
        },
        {
          "indexed": false,
          "internalType": "uint256",
          "name": "tokenId",
          "type": "uint256"
        },
        {
          "indexed": false,
          "internalType": "uint256",
          "name": "price",
          "type": "uint256"
        }
      ],
      "name": "OrderFulfilled",
      "type": "event"
    },
    {
      "anonymous": false,
      "inputs": [
        {
          "indexed": true,
          "internalType": "address",
          "name": "previousOwner",
          "type": "address"
        },
        {
          "indexed": true,
          "internalType": "address",
          "name": "newOwner",
          "type": "address"
        }
      ],
      "name": "OwnershipTransferred",
      "type": "event"
    },
    {
      "anonymous": false,
      "inputs": [
        {
          "indexed": false,
          "internalType": "uint256",
          "name": "oldFeePercent",
          "type": "uint256"
        },
        {
          "indexed": false,
          "internalType": "uint256",
          "name": "newFeePercent",
          "type": "uint256"
        }
      ],
      "name": "PlatformFeePercentUpdated",
      "type": "event"
    },
    {
      "anonymous": false,
      "inputs": [
        {
          "indexed": false,
          "internalType": "address",
          "name": "oldRecipient",
          "type": "address"
        },
        {
          "indexed": false,
          "internalType": "address",
          "name": "newRecipient",
          "type": "address"
        }
      ],
      "name": "PlatformFeeRecipientUpdated",
      "type": "event"
    },
    {
      "inputs": [
        {
          "components": [
            {
              "internalType": "address",
              "name": "seller",
              "type": "address"
            },
            {
              "internalType": "address",
              "name": "buyer",
              "type": "address"
            },
            {
              "internalType": "address",
              "name": "nftAddress",
              "type": "address"
            },
            {
              "internalType": "uint256",
              "name": "tokenId",
              "type": "uint256"
            },
            {
              "internalType": "address",
              "name": "currency",
              "type": "address"
            },
            {
              "internalType": "uint256",
              "name": "price",
              "type": "uint256"
            },
            {
              "internalType": "uint256",
              "name": "nonce",
              "type": "uint256"
            },
            {
              "internalType": "uint256",
              "name": "deadline",
              "type": "uint256"
            }
          ],
          "internalType": "struct Marketplace.Order",
          "name": "order",
          "type": "tuple"
        }
      ],
      "name": "cancelOrder",
      "outputs": [],
      "stateMutability": "nonpayable",
      "type": "function"
    },
    {
      "inputs": [],
      "name": "eip712Domain",
      "outputs": [
        {
          "internalType": "bytes1",
          "name": "fields",
          "type": "bytes1"
        },
        {
          "internalType": "string",
          "name": "name",
          "type": "string"
        },
        {
          "internalType": "string",
          "name": "version",
          "type": "string"
        },
        {
          "internalType": "uint256",
          "name": "chainId",
          "type": "uint256"
        },
        {
          "internalType": "address",
          "name": "verifyingContract",
          "type": "address"
        },
        {
          "internalType": "bytes32",
          "name": "salt",
          "type": "bytes32"
        },
        {
          "internalType": "uint256[]",
          "name": "extensions",
          "type": "uint256[]"
        }
      ],
      "stateMutability": "view",
      "type": "function"
    },
    {
      "inputs": [
        {
          "components": [
            {
              "internalType": "address",
              "name": "seller",
              "type": "address"
            },
            {
              "internalType": "address",
              "name": "buyer",
              "type": "address"
            },
            {
              "internalType": "address",
              "name": "nftAddress",
              "type": "address"
            },
            {
              "internalType": "uint256",
              "name": "tokenId",
              "type": "uint256"
            },
            {
              "internalType": "address",
              "name": "currency",
              "type": "address"
            },
            {
              "internalType": "uint256",
              "name": "price",
              "type": "uint256"
            },
            {
              "internalType": "uint256",
              "name": "nonce",
              "type": "uint256"
            },
            {
              "internalType": "uint256",
              "name": "deadline",
              "type": "uint256"
            }
          ],
          "internalType": "struct Marketplace.Order",
          "name": "order",
          "type": "tuple"
        },
        {
          "internalType": "bytes",
          "name": "signature",
          "type": "bytes"
        }
      ],
      "name": "fulfillOffer",
      "outputs": [],
      "stateMutability": "nonpayable",
      "type": "function"
    },
    {
      "inputs": [
        {
          "components": [
            {
              "internalType": "address",
              "name": "seller",
              "type": "address"
            },
            {
              "internalType": "address",
              "name": "buyer",
              "type": "address"
            },
            {
              "internalType": "address",
              "name": "nftAddress",
              "type": "address"
            },
            {
              "internalType": "uint256",
              "name": "tokenId",
              "type": "uint256"
            },
            {
              "internalType": "address",
              "name": "currency",
              "type": "address"
            },
            {
              "internalType": "uint256",
              "name": "price",
              "type": "uint256"
            },
            {
              "internalType": "uint256",
              "name": "nonce",
              "type": "uint256"
            },
            {
              "internalType": "uint256",
              "name": "deadline",
              "type": "uint256"
            }
          ],
          "internalType": "struct Marketplace.Order",
          "name": "order",
          "type": "tuple"
        },
        {
          "internalType": "bytes",
          "name": "signature",
          "type": "bytes"
        }
      ],
      "name": "fulfillOrder",
      "outputs": [],
      "stateMutability": "nonpayable",
      "type": "function"
    },
    {
      "inputs": [],
      "name": "incrementNonce",
      "outputs": [],
      "stateMutability": "nonpayable",
      "type": "function"
    },
    {
      "inputs": [
        {
          "internalType": "bytes32",
          "name": "",
          "type": "bytes32"
        }
      ],
      "name": "orderStatus",
      "outputs": [
        {
          "internalType": "bool",
          "name": "",
          "type": "bool"
        }
      ],
      "stateMutability": "view",
      "type": "function"
    },
    {
      "inputs": [],
      "name": "owner",
      "outputs": [
        {
          "internalType": "address",
          "name": "",
          "type": "address"
        }
      ],
      "stateMutability": "view",
      "type": "function"
    },
    {
      "inputs": [],
      "name": "platformFeePercent",
      "outputs": [
        {
          "internalType": "uint256",
          "name": "",
          "type": "uint256"
        }
      ],
      "stateMutability": "view",
      "type": "function"
    },
    {
      "inputs": [],
      "name": "platformFeeRecipient",
      "outputs": [
        {
          "internalType": "address",
          "name": "",
          "type": "address"
        }
      ],
      "stateMutability": "view",
      "type": "function"
    },
    {
      "inputs": [],
      "name": "renounceOwnership",
      "outputs": [],
      "stateMutability": "nonpayable",
      "type": "function"
    },
    {
      "inputs": [
        {
          "internalType": "uint256",
          "name": "_newFeePercent",
          "type": "uint256"
        }
      ],
      "name": "setPlatformFeePercent",
      "outputs": [],
      "stateMutability": "nonpayable",
      "type": "function"
    },
    {
      "inputs": [
        {
          "internalType": "address",
          "name": "_newRecipient",
          "type": "address"
        }
      ],
      "name": "setPlatformFeeRecipient",
      "outputs": [],
      "stateMutability": "nonpayable",
      "type": "function"
    },
    {
      "inputs": [
        {
          "internalType": "address",
          "name": "newOwner",
          "type": "address"
        }
      ],
      "name": "transferOwnership",
      "outputs": [],
      "stateMutability": "nonpayable",
      "type": "function"
    },
    {
      "inputs": [
        {
          "internalType": "address",
          "name": "",
          "type": "address"
        }
      ],
      "name": "userNonces",
      "outputs": [
        {
          "internalType": "uint256",
          "name": "",
          "type": "uint256"
        }
      ],
      "stateMutability": "view",
      "type": "function"
    }
  ],
  "bytecode": "0x6101606040523480156200001257600080fd5b5060405162003ae338038062003ae3833981810160405281019062000038919062000661565b848484600073ffffffffffffffffffffffffffffffffffffffff168173ffffffffffffffffffffffffffffffffffffffff1603620000b05760006040517f1e4fbdf7000000000000000000000000000000000000000000000000000000008152600401620000a7919062000738565b60405180910390fd5b620000c1816200023e60201b60201c565b5060018081905550620000df6002836200030260201b90919060201c565b6101208181525050620000fd6003826200030260201b90919060201c565b6101408181525050818051906020012060e08181525050808051906020012061010081815250504660a081815250506200013c6200035a60201b60201c565b608081815250503073ffffffffffffffffffffffffffffffffffffffff1660c08173ffffffffffffffffffffffffffffffffffffffff16815250505050600073ffffffffffffffffffffffffffffffffffffffff168273ffffffffffffffffffffffffffffffffffffffff1603620001eb576040517f08c379a0000000000000000000000000000000000000000000000000000000008152600401620001e290620007b6565b60405180910390fd5b81600460006101000a81548173ffffffffffffffffffffffffffffffffffffffff021916908373ffffffffffffffffffffffffffffffffffffffff16021790555080600581905550505050505062000c90565b60008060009054906101000a900473ffffffffffffffffffffffffffffffffffffffff169050816000806101000a81548173ffffffffffffffffffffffffffffffffffffffff021916908373ffffffffffffffffffffffffffffffffffffffff1602179055508173ffffffffffffffffffffffffffffffffffffffff168173ffffffffffffffffffffffffffffffffffffffff167f8be0079c531659141344cd1fd0a4f28419497f9722a3daafe3b4186f6b6457e060405160405180910390a35050565b600060208351101562000328576200032083620003b760201b60201c565b905062000354565b826200033a836200042460201b60201c565b60000190816200034b919062000a19565b5060ff60001b90505b92915050565b60007f8b73c3c69bb8fe3d512ecc4cf759cc79239f7b179b0ffacaa9a75d522b39400f60e0516101005146306040516020016200039c95949392919062000b2c565b60405160208183030381529060405280519060200120905090565b600080829050601f815111156200040757826040517f305a27a9000000000000000000000000000000000000000000000000000000008152600401620003fe919062000bca565b60405180910390fd5b805181620004159062000c20565b60001c1760001b915050919050565b6000819050919050565b6000604051905090565b600080fd5b600080fd5b600080fd5b600080fd5b6000601f19601f8301169050919050565b7f4e487b7100000000000000000000000000000000000000000000000000000000600052604160045260246000fd5b62000497826200044c565b810181811067ffffffffffffffff82111715620004b957620004b86200045d565b5b80604052505050565b6000620004ce6200042e565b9050620004dc82826200048c565b919050565b600067ffffffffffffffff821115620004ff57620004fe6200045d565b5b6200050a826200044c565b9050602081019050919050565b60005b83811015620005375780820151818401526020810190506200051a565b60008484015250505050565b60006200055a6200055484620004e1565b620004c2565b90508281526020810184848401111562000579576200057862000447565b5b6200058684828562000517565b509392505050565b600082601f830112620005a657620005a562000442565b5b8151620005b884826020860162000543565b91505092915050565b600073ffffffffffffffffffffffffffffffffffffffff82169050919050565b6000620005ee82620005c1565b9050919050565b6200060081620005e1565b81146200060c57600080fd5b50565b6000815190506200062081620005f5565b92915050565b6000819050919050565b6200063b8162000626565b81146200064757600080fd5b50565b6000815190506200065b8162000630565b92915050565b600080600080600060a0868803121562000680576200067f62000438565b5b600086015167ffffffffffffffff811115620006a157620006a06200043d565b5b620006af888289016200058e565b955050602086015167ffffffffffffffff811115620006d357620006d26200043d565b5b620006e1888289016200058e565b9450506040620006f4888289016200060f565b935050606062000707888289016200060f565b92505060806200071a888289016200064a565b9150509295509295909350565b6200073281620005e1565b82525050565b60006020820190506200074f600083018462000727565b92915050565b600082825260208201905092915050565b7f526563697069656e742063616e6e6f74206265207a65726f0000000000000000600082015250565b60006200079e60188362000755565b9150620007ab8262000766565b602082019050919050565b60006020820190508181036000830152620007d1816200078f565b9050919050565b600081519050919050565b7f4e487b7100000000000000000000000000000000000000000000000000000000600052602260045260246000fd5b600060028204905060018216806200082b57607f821691505b602082108103620008415762000840620007e3565b5b50919050565b60008190508160005260206000209050919050565b60006020601f8301049050919050565b600082821b905092915050565b600060088302620008ab7fffffffffffffffffffffffffffffffffffffffffffffffffffffffffffffffff826200086c565b620008b786836200086c565b95508019841693508086168417925050509392505050565b6000819050919050565b6000620008fa620008f4620008ee8462000626565b620008cf565b62000626565b9050919050565b6000819050919050565b6200091683620008d9565b6200092e620009258262000901565b84845462000879565b825550505050565b600090565b6200094562000936565b620009528184846200090b565b505050565b5b818110156200097a576200096e6000826200093b565b60018101905062000958565b5050565b601f821115620009c957620009938162000847565b6200099e846200085c565b81016020851015620009ae578190505b620009c6620009bd856200085c565b83018262000957565b50505b505050565b600082821c905092915050565b6000620009ee60001984600802620009ce565b1980831691505092915050565b600062000a098383620009db565b9150826002028217905092915050565b62000a2482620007d8565b67ffffffffffffffff81111562000a405762000a3f6200045d565b5b62000a4c825462000812565b62000a598282856200097e565b600060209050601f83116001811462000a91576000841562000a7c578287015190505b62000a888582620009fb565b86555062000af8565b601f19841662000aa18662000847565b60005b8281101562000acb5784890151825560018201915060208501945060208101905062000aa4565b8683101562000aeb578489015162000ae7601f891682620009db565b8355505b6001600288020188555050505b505050505050565b6000819050919050565b62000b158162000b00565b82525050565b62000b268162000626565b82525050565b600060a08201905062000b43600083018862000b0a565b62000b52602083018762000b0a565b62000b61604083018662000b0a565b62000b70606083018562000b1b565b62000b7f608083018462000727565b9695505050505050565b600062000b9682620007d8565b62000ba2818562000755565b935062000bb481856020860162000517565b62000bbf816200044c565b840191505092915050565b6000602082019050818103600083015262000be6818462000b89565b905092915050565b600081519050919050565b6000819050602082019050919050565b600062000c17825162000b00565b80915050919050565b600062000c2d8262000bee565b8262000c398462000bf9565b905062000c468162000c09565b9250602082101562000c895762000c847fffffffffffffffffffffffffffffffffffffffffffffffffffffffffffffffff836020036008026200086c565b831692505b5050919050565b60805160a05160c05160e051610100516101205161014051612df862000ceb60003960006110430152600061100801526000611b0801526000611ae70152600061179a015260006117f0015260006118190152612df86000f3fe608060405234801561001057600080fd5b50600436106100ea5760003560e01c80638c639a851161008c578063da0f62a211610066578063da0f62a214610217578063de5b482d14610233578063eb13554f1461024f578063f2fde38b1461026d576100ea565b80638c639a85146101bf5780638da5cb5b146101dd578063cab230d2146101fb576100ea565b806349a03152116100c857806349a031521461016b578063627cdcb914610187578063715018a61461019157806384b0196e1461019b576100ea565b80631871e243146100ef5780632dff692d1461010b5780632f7801f41461013b575b600080fd5b61010960048036038101906101049190611d04565b610289565b005b61012560048036038101906101209190611d67565b61039f565b6040516101329190611daf565b60405180910390f35b61015560048036038101906101509190611d04565b6103bf565b6040516101629190611de3565b60405180910390f35b61018560048036038101906101809190611e23565b6103d7565b005b61018f6105a9565b005b610199610600565b005b6101a3610614565b6040516101b69796959493929190611ff8565b60405180910390f35b6101c76106be565b6040516101d49190611de3565b60405180910390f35b6101e56106c4565b6040516101f2919061207c565b60405180910390f35b610215600480360381019061021091906120c3565b6106ed565b005b610231600480360381019061022c9190612155565b61077f565b005b61024d60048036038101906102489190612155565b610a87565b005b610257610d48565b604051610264919061207c565b60405180910390f35b61028760048036038101906102829190611d04565b610d6e565b005b610291610df4565b600073ffffffffffffffffffffffffffffffffffffffff168173ffffffffffffffffffffffffffffffffffffffff1603610300576040517f08c379a00000000000000000000000000000000000000000000000000000000081526004016102f790612203565b60405180910390fd5b7faf04973bb8004e313cfd09017b963bee1e6f6ffb9be88c07a0c5ce5fafe93403600460009054906101000a900473ffffffffffffffffffffffffffffffffffffffff1682604051610353929190612223565b60405180910390a180600460006101000a81548173ffffffffffffffffffffffffffffffffffffffff021916908373ffffffffffffffffffffffffffffffffffffffff16021790555050565b60076020528060005260406000206000915054906101000a900460ff1681565b60066020528060005260406000206000915090505481565b60003390508160000160208101906103ef9190611d04565b73ffffffffffffffffffffffffffffffffffffffff168173ffffffffffffffffffffffffffffffffffffffff16148061046557508160200160208101906104369190611d04565b73ffffffffffffffffffffffffffffffffffffffff168173ffffffffffffffffffffffffffffffffffffffff16145b6104a4576040517f08c379a000000000000000000000000000000000000000000000000000000000815260040161049b90612298565b60405180910390fd5b60006104af83610e7b565b90506007600082815260200190815260200160002060009054906101000a900460ff1615610512576040517f08c379a000000000000000000000000000000000000000000000000000000000815260040161050990612304565b60405180910390fd5b60016007600083815260200190815260200160002060006101000a81548160ff02191690831515021790555082606001358360400160208101906105569190611d04565b73ffffffffffffffffffffffffffffffffffffffff16827f1989da6fac61abd1ab6bc85f17f3f4db680fad48c4a96fd3841977f8cfe9eb0e8560405161059c919061207c565b60405180910390a4505050565b600660003373ffffffffffffffffffffffffffffffffffffffff1673ffffffffffffffffffffffffffffffffffffffff16815260200190815260200160002060008154809291906105f990612353565b9190505550565b610608610df4565b6106126000610f3b565b565b600060608060008060006060610628610fff565b61063061103a565b46306000801b600067ffffffffffffffff8111156106515761065061239b565b5b60405190808252806020026020018201604052801561067f5781602001602082028036833780820191505090505b507f0f00000000000000000000000000000000000000000000000000000000000000959493929190965096509650965096509650965090919293949596565b60055481565b60008060009054906101000a900473ffffffffffffffffffffffffffffffffffffffff16905090565b6106f5610df4565b61271081111561073a576040517f08c379a000000000000000000000000000000000000000000000000000000000815260040161073190612416565b60405180910390fd5b7ff4b9cde47c67b2b563d8b95f018afcffff71d3f8c847d36a89beb50733d6c9df6005548260405161076d929190612436565b60405180910390a18060058190555050565b610787611075565b8260e0013542106107cd576040517f08c379a00000000000000000000000000000000000000000000000000000000081526004016107c4906124ab565b60405180910390fd5b60008360000160208101906107e29190611d04565b905060006107ef85610e7b565b90506007600082815260200190815260200160002060009054906101000a900460ff1615610852576040517f08c379a000000000000000000000000000000000000000000000000000000000815260040161084990612304565b60405180910390fd5b61085e828286866110bb565b61089d576040517f08c379a000000000000000000000000000000000000000000000000000000000815260040161089490612517565b60405180910390fd5b60016007600083815260200190815260200160002060006101000a81548160ff0219169083151502179055506000339050600073ffffffffffffffffffffffffffffffffffffffff168660200160208101906108f99190611d04565b73ffffffffffffffffffffffffffffffffffffffff1614610995578560200160208101906109279190611d04565b73ffffffffffffffffffffffffffffffffffffffff168173ffffffffffffffffffffffffffffffffffffffff1614610994576040517f08c379a000000000000000000000000000000000000000000000000000000000815260040161098b90612583565b60405180910390fd5b5b6109e1818760000160208101906109ac9190611d04565b8860400160208101906109bf9190611d04565b89606001358a60800160208101906109d79190611d04565b8b60a00135611143565b8073ffffffffffffffffffffffffffffffffffffffff16866000016020810190610a0b9190611d04565b73ffffffffffffffffffffffffffffffffffffffff16837fae16a7b9f34eb013dde3e7e431986599ff512137255efcd247d5528a550deee7896040016020810190610a569190611d04565b8a606001358b60a00135604051610a6f939291906125a3565b60405180910390a4505050610a826115f7565b505050565b610a8f611075565b8260e001354210610ad5576040517f08c379a0000000000000000000000000000000000000000000000000000000008152600401610acc90612626565b60405180910390fd5b6000836020016020810190610aea9190611d04565b905060003390506000610afc86610e7b565b90506007600082815260200190815260200160002060009054906101000a900460ff1615610b5f576040517f08c379a0000000000000000000000000000000000000000000000000000000008152600401610b5690612692565b60405180910390fd5b856000016020810190610b729190611d04565b73ffffffffffffffffffffffffffffffffffffffff168273ffffffffffffffffffffffffffffffffffffffff1614610bdf576040517f08c379a0000000000000000000000000000000000000000000000000000000008152600401610bd6906126fe565b60405180910390fd5b610beb838287876110bb565b610c2a576040517f08c379a0000000000000000000000000000000000000000000000000000000008152600401610c219061276a565b60405180910390fd5b60016007600083815260200190815260200160002060006101000a81548160ff021916908315150217905550610ca2866020016020810190610c6c9190611d04565b83886040016020810190610c809190611d04565b89606001358a6080016020810190610c989190611d04565b8b60a00135611143565b856020016020810190610cb59190611d04565b73ffffffffffffffffffffffffffffffffffffffff168273ffffffffffffffffffffffffffffffffffffffff16827fae16a7b9f34eb013dde3e7e431986599ff512137255efcd247d5528a550deee7896040016020810190610d179190611d04565b8a606001358b60a00135604051610d30939291906125a3565b60405180910390a4505050610d436115f7565b505050565b600460009054906101000a900473ffffffffffffffffffffffffffffffffffffffff1681565b610d76610df4565b600073ffffffffffffffffffffffffffffffffffffffff168173ffffffffffffffffffffffffffffffffffffffff1603610de85760006040517f1e4fbdf7000000000000000000000000000000000000000000000000000000008152600401610ddf919061207c565b60405180910390fd5b610df181610f3b565b50565b610dfc611600565b73ffffffffffffffffffffffffffffffffffffffff16610e1a6106c4565b73ffffffffffffffffffffffffffffffffffffffff1614610e7957610e3d611600565b6040517f118cdaa7000000000000000000000000000000000000000000000000000000008152600401610e70919061207c565b60405180910390fd5b565b6000610f347fbf903f52c02ffc68f1c2367d8d2f116d1a25163fe798cb658496619ab6b1bf2d836000016020810190610eb49190611d04565b846020016020810190610ec79190611d04565b856040016020810190610eda9190611d04565b8660600135876080016020810190610ef29190611d04565b8860a001358960c001358a60e00135604051602001610f199998979695949392919061278a565b60405160208183030381529060405280519060200120611608565b9050919050565b60008060009054906101000a900473ffffffffffffffffffffffffffffffffffffffff169050816000806101000a81548173ffffffffffffffffffffffffffffffffffffffff021916908373ffffffffffffffffffffffffffffffffffffffff1602179055508173ffffffffffffffffffffffffffffffffffffffff168173ffffffffffffffffffffffffffffffffffffffff167f8be0079c531659141344cd1fd0a4f28419497f9722a3daafe3b4186f6b6457e060405160405180910390a35050565b606061103560027f000000000000000000000000000000000000000000000000000000000000000061162290919063ffffffff16565b905090565b606061107060037f000000000000000000000000000000000000000000000000000000000000000061162290919063ffffffff16565b905090565b6002600154036110b1576040517f3ee5aeb500000000000000000000000000000000000000000000000000000000815260040160405180910390fd5b6002600181905550565b60008473ffffffffffffffffffffffffffffffffffffffff166111228585858080601f016020809104026020016040519081016040528093929190818152602001838380828437600081840152601f19601f820116905080830192505050505050506116d2565b73ffffffffffffffffffffffffffffffffffffffff16149050949350505050565b60008490508573ffffffffffffffffffffffffffffffffffffffff168173ffffffffffffffffffffffffffffffffffffffff16636352211e866040518263ffffffff1660e01b81526004016111989190611de3565b602060405180830381865afa1580156111b5573d6000803e3d6000fd5b505050506040513d601f19601f820116820180604052508101906111d9919061282c565b73ffffffffffffffffffffffffffffffffffffffff161461122f576040517f08c379a0000000000000000000000000000000000000000000000000000000008152600401611226906128a5565b60405180910390fd5b60006127106005548461124291906128c5565b61124c9190612936565b905060008061125c8888876116fe565b9150915084818461126d9190612967565b11156112ae576040517f08c379a00000000000000000000000000000000000000000000000000000000081526004016112a5906129e7565b60405180910390fd5b60008184876112bd9190612a07565b6112c79190612a07565b905060008790508073ffffffffffffffffffffffffffffffffffffffff166323b872dd8d8d856040518463ffffffff1660e01b815260040161130b93929190612a3b565b6020604051808303816000875af115801561132a573d6000803e3d6000fd5b505050506040513d601f19601f8201168201806040525081019061134e9190612a9e565b61138d576040517f08c379a000000000000000000000000000000000000000000000000000000000815260040161138490612b17565b60405180910390fd5b6000851115611478578073ffffffffffffffffffffffffffffffffffffffff166323b872dd8d600460009054906101000a900473ffffffffffffffffffffffffffffffffffffffff16886040518463ffffffff1660e01b81526004016113f593929190612a3b565b6020604051808303816000875af1158015611414573d6000803e3d6000fd5b505050506040513d601f19601f820116820180604052508101906114389190612a9e565b611477576040517f08c379a000000000000000000000000000000000000000000000000000000000815260040161146e90612b83565b60405180910390fd5b5b6000831180156114b55750600073ffffffffffffffffffffffffffffffffffffffff168473ffffffffffffffffffffffffffffffffffffffff1614155b1561157a578073ffffffffffffffffffffffffffffffffffffffff166323b872dd8d86866040518463ffffffff1660e01b81526004016114f793929190612a3b565b6020604051808303816000875af1158015611516573d6000803e3d6000fd5b505050506040513d601f19601f8201168201806040525081019061153a9190612a9e565b611579576040517f08c379a000000000000000000000000000000000000000000000000000000000815260040161157090612bef565b60405180910390fd5b5b8573ffffffffffffffffffffffffffffffffffffffff166342842e0e8c8e8c6040518463ffffffff1660e01b81526004016115b793929190612a3b565b600060405180830381600087803b1580156115d157600080fd5b505af11580156115e5573d6000803e3d6000fd5b50505050505050505050505050505050565b60018081905550565b600033905090565b600061161b611615611796565b8361184d565b9050919050565b606060ff60001b831461163f576116388361188e565b90506116cc565b81805461164b90612c3e565b80601f016020809104026020016040519081016040528092919081815260200182805461167790612c3e565b80156116c45780601f10611699576101008083540402835291602001916116c4565b820191906000526020600020905b8154815290600101906020018083116116a757829003601f168201915b505050505090505b92915050565b6000806000806116e28686611902565b9250925092506116f2828261195e565b82935050505092915050565b6000808473ffffffffffffffffffffffffffffffffffffffff16632a55205a85856040518363ffffffff1660e01b815260040161173c929190612436565b6040805180830381865afa92505050801561177557506040513d601f19601f820116820180604052508101906117729190612c84565b60015b611785576000809150915061178e565b81819350935050505b935093915050565b60007f000000000000000000000000000000000000000000000000000000000000000073ffffffffffffffffffffffffffffffffffffffff163073ffffffffffffffffffffffffffffffffffffffff1614801561181257507f000000000000000000000000000000000000000000000000000000000000000046145b1561183f577f0000000000000000000000000000000000000000000000000000000000000000905061184a565b611847611ac2565b90505b90565b60006040517f190100000000000000000000000000000000000000000000000000000000000081528360028201528260228201526042812091505092915050565b6060600061189b83611b58565b90506000602067ffffffffffffffff8111156118ba576118b961239b565b5b6040519080825280601f01601f1916602001820160405280156118ec5781602001600182028036833780820191505090505b5090508181528360208201528092505050919050565b600080600060418451036119475760008060006020870151925060408701519150606087015160001a905061193988828585611ba8565b955095509550505050611957565b60006002855160001b9250925092505b9250925092565b6000600381111561197257611971612cc4565b5b82600381111561198557611984612cc4565b5b0315611abe576001600381111561199f5761199e612cc4565b5b8260038111156119b2576119b1612cc4565b5b036119e9576040517ff645eedf00000000000000000000000000000000000000000000000000000000815260040160405180910390fd5b600260038111156119fd576119fc612cc4565b5b826003811115611a1057611a0f612cc4565b5b03611a55578060001c6040517ffce698f7000000000000000000000000000000000000000000000000000000008152600401611a4c9190611de3565b60405180910390fd5b600380811115611a6857611a67612cc4565b5b826003811115611a7b57611a7a612cc4565b5b03611abd57806040517fd78bce0c000000000000000000000000000000000000000000000000000000008152600401611ab49190612cf3565b60405180910390fd5b5b5050565b60007f8b73c3c69bb8fe3d512ecc4cf759cc79239f7b179b0ffacaa9a75d522b39400f7f00000000000000000000000000000000000000000000000000000000000000007f00000000000000000000000000000000000000000000000000000000000000004630604051602001611b3d959493929190612d0e565b60405160208183030381529060405280519060200120905090565b60008060ff8360001c169050601f811115611b9f576040517fb3512b0c00000000000000000000000000000000000000000000000000000000815260040160405180910390fd5b80915050919050565b60008060007f7fffffffffffffffffffffffffffffff5d576e7357a4501ddfe92f46681b20a08460001c1115611be8576000600385925092509250611c92565b600060018888888860405160008152602001604052604051611c0d9493929190612d7d565b6020604051602081039080840390855afa158015611c2f573d6000803e3d6000fd5b505050602060405103519050600073ffffffffffffffffffffffffffffffffffffffff168173ffffffffffffffffffffffffffffffffffffffff1603611c8357600060016000801b93509350935050611c92565b8060008060001b935093509350505b9450945094915050565b600080fd5b600080fd5b600073ffffffffffffffffffffffffffffffffffffffff82169050919050565b6000611cd182611ca6565b9050919050565b611ce181611cc6565b8114611cec57600080fd5b50565b600081359050611cfe81611cd8565b92915050565b600060208284031215611d1a57611d19611c9c565b5b6000611d2884828501611cef565b91505092915050565b6000819050919050565b611d4481611d31565b8114611d4f57600080fd5b50565b600081359050611d6181611d3b565b92915050565b600060208284031215611d7d57611d7c611c9c565b5b6000611d8b84828501611d52565b91505092915050565b60008115159050919050565b611da981611d94565b82525050565b6000602082019050611dc46000830184611da0565b92915050565b6000819050919050565b611ddd81611dca565b82525050565b6000602082019050611df86000830184611dd4565b92915050565b600080fd5b60006101008284031215611e1a57611e19611dfe565b5b81905092915050565b60006101008284031215611e3a57611e39611c9c565b5b6000611e4884828501611e03565b91505092915050565b60007fff0000000000000000000000000000000000000000000000000000000000000082169050919050565b611e8681611e51565b82525050565b600081519050919050565b600082825260208201905092915050565b60005b83811015611ec6578082015181840152602081019050611eab565b60008484015250505050565b6000601f19601f8301169050919050565b6000611eee82611e8c565b611ef88185611e97565b9350611f08818560208601611ea8565b611f1181611ed2565b840191505092915050565b611f2581611cc6565b82525050565b611f3481611d31565b82525050565b600081519050919050565b600082825260208201905092915050565b6000819050602082019050919050565b611f6f81611dca565b82525050565b6000611f818383611f66565b60208301905092915050565b6000602082019050919050565b6000611fa582611f3a565b611faf8185611f45565b9350611fba83611f56565b8060005b83811015611feb578151611fd28882611f75565b9750611fdd83611f8d565b925050600181019050611fbe565b5085935050505092915050565b600060e08201905061200d600083018a611e7d565b818103602083015261201f8189611ee3565b905081810360408301526120338188611ee3565b90506120426060830187611dd4565b61204f6080830186611f1c565b61205c60a0830185611f2b565b81810360c083015261206e8184611f9a565b905098975050505050505050565b60006020820190506120916000830184611f1c565b92915050565b6120a081611dca565b81146120ab57600080fd5b50565b6000813590506120bd81612097565b92915050565b6000602082840312156120d9576120d8611c9c565b5b60006120e7848285016120ae565b91505092915050565b600080fd5b600080fd5b600080fd5b60008083601f840112612115576121146120f0565b5b8235905067ffffffffffffffff811115612132576121316120f5565b5b60208301915083600182028301111561214e5761214d6120fa565b5b9250929050565b6000806000610120848603121561216f5761216e611c9c565b5b600061217d86828701611e03565b93505061010084013567ffffffffffffffff81111561219f5761219e611ca1565b5b6121ab868287016120ff565b92509250509250925092565b7f526563697069656e742063616e6e6f74206265207a65726f0000000000000000600082015250565b60006121ed601883611e97565b91506121f8826121b7565b602082019050919050565b6000602082019050818103600083015261221c816121e0565b9050919050565b60006040820190506122386000830185611f1c565b6122456020830184611f1c565b9392505050565b7f4e6f74206120706172747920746f20746865206f726465720000000000000000600082015250565b6000612282601883611e97565b915061228d8261224c565b602082019050919050565b600060208201905081810360008301526122b181612275565b9050919050565b7f4f726465723a20416c72656164792068616e646c656400000000000000000000600082015250565b60006122ee601683611e97565b91506122f9826122b8565b602082019050919050565b6000602082019050818103600083015261231d816122e1565b9050919050565b7f4e487b7100000000000000000000000000000000000000000000000000000000600052601160045260246000fd5b600061235e82611dca565b91507fffffffffffffffffffffffffffffffffffffffffffffffffffffffffffffffff82036123905761238f612324565b5b600182019050919050565b7f4e487b7100000000000000000000000000000000000000000000000000000000600052604160045260246000fd5b7f4665652070657263656e742063616e6e6f742065786365656420313030303000600082015250565b6000612400601f83611e97565b915061240b826123ca565b602082019050919050565b6000602082019050818103600083015261242f816123f3565b9050919050565b600060408201905061244b6000830185611dd4565b6124586020830184611dd4565b9392505050565b7f4f726465723a2045787069726564000000000000000000000000000000000000600082015250565b6000612495600e83611e97565b91506124a08261245f565b602082019050919050565b600060208201905081810360008301526124c481612488565b9050919050565b7f4f726465723a20496e76616c6964207369676e61747572650000000000000000600082015250565b6000612501601883611e97565b915061250c826124cb565b602082019050919050565b60006020820190508181036000830152612530816124f4565b9050919050565b7f4f726465723a204e6f7420666f7220796f750000000000000000000000000000600082015250565b600061256d601283611e97565b915061257882612537565b602082019050919050565b6000602082019050818103600083015261259c81612560565b9050919050565b60006060820190506125b86000830186611f1c565b6125c56020830185611dd4565b6125d26040830184611dd4565b949350505050565b7f4f666665723a2045787069726564000000000000000000000000000000000000600082015250565b6000612610600e83611e97565b915061261b826125da565b602082019050919050565b6000602082019050818103600083015261263f81612603565b9050919050565b7f4f666665723a20416c72656164792068616e646c656400000000000000000000600082015250565b600061267c601683611e97565b915061268782612646565b602082019050919050565b600060208201905081810360008301526126ab8161266f565b9050919050565b7f4f666665723a204e6f7420666f7220796f750000000000000000000000000000600082015250565b60006126e8601283611e97565b91506126f3826126b2565b602082019050919050565b60006020820190508181036000830152612717816126db565b9050919050565b7f4f666665723a20496e76616c6964206275796572207369676e61747572650000600082015250565b6000612754601e83611e97565b915061275f8261271e565b602082019050919050565b6000602082019050818103600083015261278381612747565b9050919050565b6000610120820190506127a0600083018c611f2b565b6127ad602083018b611f1c565b6127ba604083018a611f1c565b6127c76060830189611f1c565b6127d46080830188611dd4565b6127e160a0830187611f1c565b6127ee60c0830186611dd4565b6127fb60e0830185611dd4565b612809610100830184611dd4565b9a9950505050505050505050565b60008151905061282681611cd8565b92915050565b60006020828403121561284257612841611c9c565b5b600061285084828501612817565b91505092915050565b7f53656c6c6572206e6f206c6f6e676572206f776e73204e465400000000000000600082015250565b600061288f601983611e97565b915061289a82612859565b602082019050919050565b600060208201905081810360008301526128be81612882565b9050919050565b60006128d082611dca565b91506128db83611dca565b92508282026128e981611dca565b91508282048414831517612900576128ff612324565b5b5092915050565b7f4e487b7100000000000000000000000000000000000000000000000000000000600052601260045260246000fd5b600061294182611dca565b915061294c83611dca565b92508261295c5761295b612907565b5b828204905092915050565b600061297282611dca565b915061297d83611dca565b925082820190508082111561299557612994612324565b5b92915050565b7f4665657320657863656564207072696365000000000000000000000000000000600082015250565b60006129d1601183611e97565b91506129dc8261299b565b602082019050919050565b60006020820190508181036000830152612a00816129c4565b9050919050565b6000612a1282611dca565b9150612a1d83611dca565b9250828203905081811115612a3557612a34612324565b5b92915050565b6000606082019050612a506000830186611f1c565b612a5d6020830185611f1c565b612a6a6040830184611dd4565b949350505050565b612a7b81611d94565b8114612a8657600080fd5b50565b600081519050612a9881612a72565b92915050565b600060208284031215612ab457612ab3611c9c565b5b6000612ac284828501612a89565b91505092915050565b7f5472616e7366657220746f2073656c6c6572206661696c656400000000000000600082015250565b6000612b01601983611e97565b9150612b0c82612acb565b602082019050919050565b60006020820190508181036000830152612b3081612af4565b9050919050565b7f506c6174666f726d20666565207472616e73666572206661696c656400000000600082015250565b6000612b6d601c83611e97565b9150612b7882612b37565b602082019050919050565b60006020820190508181036000830152612b9c81612b60565b9050919050565b7f526f79616c747920666565207472616e73666572206661696c65640000000000600082015250565b6000612bd9601b83611e97565b9150612be482612ba3565b602082019050919050565b60006020820190508181036000830152612c0881612bcc565b9050919050565b7f4e487b7100000000000000000000000000000000000000000000000000000000600052602260045260246000fd5b60006002820490506001821680612c5657607f821691505b602082108103612c6957612c68612c0f565b5b50919050565b600081519050612c7e81612097565b92915050565b60008060408385031215612c9b57612c9a611c9c565b5b6000612ca985828601612817565b9250506020612cba85828601612c6f565b9150509250929050565b7f4e487b7100000000000000000000000000000000000000000000000000000000600052602160045260246000fd5b6000602082019050612d086000830184611f2b565b92915050565b600060a082019050612d236000830188611f2b565b612d306020830187611f2b565b612d3d6040830186611f2b565b612d4a6060830185611dd4565b612d576080830184611f1c565b9695505050505050565b600060ff82169050919050565b612d7781612d61565b82525050565b6000608082019050612d926000830187611f2b565b612d9f6020830186612d6e565b612dac6040830185611f2b565b612db96060830184611f2b565b9594505050505056fea26469706673582212203c8fa14844261bee355eaca0100c3fa06c5b1c92b1ddfd82e1e62bdc3848087f64736f6c63430008140033",
  "linkReferences": {},
  "deployedLinkReferences": {}
}