{
  "_format": "hh-sol-artifact-1",
  "contractName": "Marketplace",
  "sourceName": "contracts/Marketplace.sol",
  "abi": [
    {
      "inputs": [
        {
          "internalType": "address",
          "name": "initialOwner",
          "type": "address"
        },
        {
          "internalType": "address",
          "name": "_platformFeeRecipient",
          "type": "address"
        },
        {
          "internalType": "uint256",
          "name": "_platformFeePercent",
          "type": "uint256"
        }
      ],
      "stateMutability": "nonpayable",
      "type": "constructor"
    },
    {
      "inputs": [
        {
          "internalType": "address",
          "name": "owner",
          "type": "address"
        }
      ],
      "name": "OwnableInvalidOwner",
      "type": "error"
    },
    {
      "inputs": [
        {
          "internalType": "address",
          "name": "account",
          "type": "address"
        }
      ],
      "name": "OwnableUnauthorizedAccount",
      "type": "error"
    },
    {
      "inputs": [],
      "name": "ReentrancyGuardReentrantCall",
      "type": "error"
    },
    {
      "anonymous": false,
      "inputs": [
        {
          "indexed": true,
          "internalType": "address",
          "name": "seller",
          "type": "address"
        },
        {
          "indexed": true,
          "internalType": "address",
          "name": "nftAddress",
          "type": "address"
        },
        {
          "indexed": true,
          "internalType": "uint256",
          "name": "tokenId",
          "type": "uint256"
        },
        {
          "indexed": false,
          "internalType": "uint256",
          "name": "price",
          "type": "uint256"
        }
      ],
      "name": "ItemListed",
      "type": "event"
    },
    {
      "anonymous": false,
      "inputs": [
        {
          "indexed": true,
          "internalType": "address",
          "name": "nftAddress",
          "type": "address"
        },
        {
          "indexed": true,
          "internalType": "uint256",
          "name": "tokenId",
          "type": "uint256"
        },
        {
          "indexed": true,
          "internalType": "address",
          "name": "seller",
          "type": "address"
        },
        {
          "indexed": false,
          "internalType": "address",
          "name": "buyer",
          "type": "address"
        },
        {
          "indexed": false,
          "internalType": "uint256",
          "name": "price",
          "type": "uint256"
        },
        {
          "indexed": false,
          "internalType": "uint256",
          "name": "platformFee",
          "type": "uint256"
        },
        {
          "indexed": false,
          "internalType": "uint256",
          "name": "royaltyFee",
          "type": "uint256"
        }
      ],
      "name": "ItemSold",
      "type": "event"
    },
    {
      "anonymous": false,
      "inputs": [
        {
          "indexed": true,
          "internalType": "address",
          "name": "seller",
          "type": "address"
        },
        {
          "indexed": true,
          "internalType": "address",
          "name": "nftAddress",
          "type": "address"
        },
        {
          "indexed": true,
          "internalType": "uint256",
          "name": "tokenId",
          "type": "uint256"
        }
      ],
      "name": "ListingCancelled",
      "type": "event"
    },
    {
      "anonymous": false,
      "inputs": [
        {
          "indexed": true,
          "internalType": "address",
          "name": "previousOwner",
          "type": "address"
        },
        {
          "indexed": true,
          "internalType": "address",
          "name": "newOwner",
          "type": "address"
        }
      ],
      "name": "OwnershipTransferred",
      "type": "event"
    },
    {
      "anonymous": false,
      "inputs": [
        {
          "indexed": false,
          "internalType": "uint256",
          "name": "oldFeePercent",
          "type": "uint256"
        },
        {
          "indexed": false,
          "internalType": "uint256",
          "name": "newFeePercent",
          "type": "uint256"
        }
      ],
      "name": "PlatformFeePercentUpdated",
      "type": "event"
    },
    {
      "anonymous": false,
      "inputs": [
        {
          "indexed": false,
          "internalType": "address",
          "name": "oldRecipient",
          "type": "address"
        },
        {
          "indexed": false,
          "internalType": "address",
          "name": "newRecipient",
          "type": "address"
        }
      ],
      "name": "PlatformFeeRecipientUpdated",
      "type": "event"
    },
    {
      "inputs": [
        {
          "internalType": "address",
          "name": "_nftAddress",
          "type": "address"
        },
        {
          "internalType": "uint256",
          "name": "_tokenId",
          "type": "uint256"
        }
      ],
      "name": "buyItem",
      "outputs": [],
      "stateMutability": "payable",
      "type": "function"
    },
    {
      "inputs": [
        {
          "internalType": "address",
          "name": "_nftAddress",
          "type": "address"
        },
        {
          "internalType": "uint256",
          "name": "_tokenId",
          "type": "uint256"
        }
      ],
      "name": "cancelListing",
      "outputs": [],
      "stateMutability": "nonpayable",
      "type": "function"
    },
    {
      "inputs": [
        {
          "internalType": "address",
          "name": "_nftAddress",
          "type": "address"
        },
        {
          "internalType": "uint256",
          "name": "_tokenId",
          "type": "uint256"
        }
      ],
      "name": "getListing",
      "outputs": [
        {
          "internalType": "address",
          "name": "seller",
          "type": "address"
        },
        {
          "internalType": "uint256",
          "name": "price",
          "type": "uint256"
        },
        {
          "internalType": "bool",
          "name": "active",
          "type": "bool"
        }
      ],
      "stateMutability": "view",
      "type": "function"
    },
    {
      "inputs": [
        {
          "internalType": "address",
          "name": "_nftAddress",
          "type": "address"
        },
        {
          "internalType": "uint256",
          "name": "_tokenId",
          "type": "uint256"
        },
        {
          "internalType": "uint256",
          "name": "_price",
          "type": "uint256"
        }
      ],
      "name": "listItem",
      "outputs": [],
      "stateMutability": "nonpayable",
      "type": "function"
    },
    {
      "inputs": [
        {
          "internalType": "address",
          "name": "",
          "type": "address"
        },
        {
          "internalType": "uint256",
          "name": "",
          "type": "uint256"
        }
      ],
      "name": "listings",
      "outputs": [
        {
          "internalType": "address",
          "name": "seller",
          "type": "address"
        },
        {
          "internalType": "address",
          "name": "nftAddress",
          "type": "address"
        },
        {
          "internalType": "uint256",
          "name": "tokenId",
          "type": "uint256"
        },
        {
          "internalType": "uint256",
          "name": "price",
          "type": "uint256"
        },
        {
          "internalType": "bool",
          "name": "active",
          "type": "bool"
        }
      ],
      "stateMutability": "view",
      "type": "function"
    },
    {
      "inputs": [],
      "name": "owner",
      "outputs": [
        {
          "internalType": "address",
          "name": "",
          "type": "address"
        }
      ],
      "stateMutability": "view",
      "type": "function"
    },
    {
      "inputs": [],
      "name": "platformFeePercent",
      "outputs": [
        {
          "internalType": "uint256",
          "name": "",
          "type": "uint256"
        }
      ],
      "stateMutability": "view",
      "type": "function"
    },
    {
      "inputs": [],
      "name": "platformFeeRecipient",
      "outputs": [
        {
          "internalType": "address",
          "name": "",
          "type": "address"
        }
      ],
      "stateMutability": "view",
      "type": "function"
    },
    {
      "inputs": [],
      "name": "renounceOwnership",
      "outputs": [],
      "stateMutability": "nonpayable",
      "type": "function"
    },
    {
      "inputs": [
        {
          "internalType": "uint256",
          "name": "_newFeePercent",
          "type": "uint256"
        }
      ],
      "name": "setPlatformFeePercent",
      "outputs": [],
      "stateMutability": "nonpayable",
      "type": "function"
    },
    {
      "inputs": [
        {
          "internalType": "address",
          "name": "_newRecipient",
          "type": "address"
        }
      ],
      "name": "setPlatformFeeRecipient",
      "outputs": [],
      "stateMutability": "nonpayable",
      "type": "function"
    },
    {
      "inputs": [
        {
          "internalType": "address",
          "name": "newOwner",
          "type": "address"
        }
      ],
      "name": "transferOwnership",
      "outputs": [],
      "stateMutability": "nonpayable",
      "type": "function"
    }
  ],
  "bytecode": "0x60806040523480156200001157600080fd5b50604051620029363803806200293683398181016040528101906200003791906200033a565b82600073ffffffffffffffffffffffffffffffffffffffff168173ffffffffffffffffffffffffffffffffffffffff1603620000ad5760006040517f1e4fbdf7000000000000000000000000000000000000000000000000000000008152600401620000a49190620003a7565b60405180910390fd5b620000be81620001d160201b60201c565b5060018081905550600073ffffffffffffffffffffffffffffffffffffffff168273ffffffffffffffffffffffffffffffffffffffff160362000138576040517f08c379a00000000000000000000000000000000000000000000000000000000081526004016200012f906200044b565b60405180910390fd5b61271081111562000180576040517f08c379a00000000000000000000000000000000000000000000000000000000081526004016200017790620004e3565b60405180910390fd5b81600260006101000a81548173ffffffffffffffffffffffffffffffffffffffff021916908373ffffffffffffffffffffffffffffffffffffffff1602179055508060038190555050505062000505565b60008060009054906101000a900473ffffffffffffffffffffffffffffffffffffffff169050816000806101000a81548173ffffffffffffffffffffffffffffffffffffffff021916908373ffffffffffffffffffffffffffffffffffffffff1602179055508173ffffffffffffffffffffffffffffffffffffffff168173ffffffffffffffffffffffffffffffffffffffff167f8be0079c531659141344cd1fd0a4f28419497f9722a3daafe3b4186f6b6457e060405160405180910390a35050565b600080fd5b600073ffffffffffffffffffffffffffffffffffffffff82169050919050565b6000620002c7826200029a565b9050919050565b620002d981620002ba565b8114620002e557600080fd5b50565b600081519050620002f981620002ce565b92915050565b6000819050919050565b6200031481620002ff565b81146200032057600080fd5b50565b600081519050620003348162000309565b92915050565b60008060006060848603121562000356576200035562000295565b5b60006200036686828701620002e8565b93505060206200037986828701620002e8565b92505060406200038c8682870162000323565b9150509250925092565b620003a181620002ba565b82525050565b6000602082019050620003be600083018462000396565b92915050565b600082825260208201905092915050565b7f4d61726b6574706c6163653a20506c6174666f726d206665652072656369706960008201527f656e742063616e6e6f74206265207a65726f2061646472657373000000000000602082015250565b600062000433603a83620003c4565b91506200044082620003d5565b604082019050919050565b60006020820190508181036000830152620004668162000424565b9050919050565b7f4d61726b6574706c6163653a20506c6174666f726d206665652070657263656e60008201527f742063616e6e6f74206578636565642031303030302028313030252900000000602082015250565b6000620004cb603c83620003c4565b9150620004d8826200046d565b604082019050919050565b60006020820190508181036000830152620004fe81620004bc565b9050919050565b61242180620005156000396000f3fe6080604052600436106100a65760003560e01c80638da5cb5b116100645780638da5cb5b146101bf5780639f37092a146101ea578063b2ddee0614610206578063cab230d21461022f578063eb13554f14610258578063f2fde38b14610283576100a6565b806207df30146100ab5780631871e243146100ec578063715018a61461011557806388700d1c1461012c57806389bfd38f1461016b5780638c639a8514610194575b600080fd5b3480156100b757600080fd5b506100d260048036038101906100cd9190611629565b6102ac565b6040516100e39594939291906116a2565b60405180910390f35b3480156100f857600080fd5b50610113600480360381019061010e91906116f5565b61033c565b005b34801561012157600080fd5b5061012a610458565b005b34801561013857600080fd5b50610153600480360381019061014e9190611629565b61046c565b60405161016293929190611722565b60405180910390f35b34801561017757600080fd5b50610192600480360381019061018d9190611759565b61050e565b005b3480156101a057600080fd5b506101a9610a2f565b6040516101b691906117ac565b60405180910390f35b3480156101cb57600080fd5b506101d4610a35565b6040516101e191906117c7565b60405180910390f35b61020460048036038101906101ff9190611629565b610a5e565b005b34801561021257600080fd5b5061022d60048036038101906102289190611629565b6110e6565b005b34801561023b57600080fd5b50610256600480360381019061025191906117e2565b6112aa565b005b34801561026457600080fd5b5061026d611342565b60405161027a91906117c7565b60405180910390f35b34801561028f57600080fd5b506102aa60048036038101906102a591906116f5565b611368565b005b6004602052816000526040600020602052806000526040600020600091509150508060000160009054906101000a900473ffffffffffffffffffffffffffffffffffffffff16908060010160009054906101000a900473ffffffffffffffffffffffffffffffffffffffff16908060020154908060030154908060040160009054906101000a900460ff16905085565b6103446113ee565b600073ffffffffffffffffffffffffffffffffffffffff168173ffffffffffffffffffffffffffffffffffffffff16036103b3576040517f08c379a00000000000000000000000000000000000000000000000000000000081526004016103aa90611892565b60405180910390fd5b6000600260009054906101000a900473ffffffffffffffffffffffffffffffffffffffff16905081600260006101000a81548173ffffffffffffffffffffffffffffffffffffffff021916908373ffffffffffffffffffffffffffffffffffffffff1602179055507faf04973bb8004e313cfd09017b963bee1e6f6ffb9be88c07a0c5ce5fafe93403818360405161044c9291906118b2565b60405180910390a15050565b6104606113ee565b61046a6000611475565b565b600080600080600460008773ffffffffffffffffffffffffffffffffffffffff1673ffffffffffffffffffffffffffffffffffffffff168152602001908152602001600020600086815260200190815260200160002090508060000160009054906101000a900473ffffffffffffffffffffffffffffffffffffffff1681600301548260040160009054906101000a900460ff16935093509350509250925092565b610516611539565b60008111610559576040517f08c379a00000000000000000000000000000000000000000000000000000000081526004016105509061194d565b60405180910390fd5b60008390503373ffffffffffffffffffffffffffffffffffffffff168173ffffffffffffffffffffffffffffffffffffffff16636352211e856040518263ffffffff1660e01b81526004016105ae91906117ac565b602060405180830381865afa1580156105cb573d6000803e3d6000fd5b505050506040513d601f19601f820116820180604052508101906105ef9190611982565b73ffffffffffffffffffffffffffffffffffffffff1614610645576040517f08c379a000000000000000000000000000000000000000000000000000000000815260040161063c90611a21565b60405180910390fd5b8073ffffffffffffffffffffffffffffffffffffffff1663e985e9c533306040518363ffffffff1660e01b81526004016106809291906118b2565b602060405180830381865afa15801561069d573d6000803e3d6000fd5b505050506040513d601f19601f820116820180604052508101906106c19190611a6d565b8061077057503073ffffffffffffffffffffffffffffffffffffffff168173ffffffffffffffffffffffffffffffffffffffff1663081812fc856040518263ffffffff1660e01b815260040161071791906117ac565b602060405180830381865afa158015610734573d6000803e3d6000fd5b505050506040513d601f19601f820116820180604052508101906107589190611982565b73ffffffffffffffffffffffffffffffffffffffff16145b6107af576040517f08c379a00000000000000000000000000000000000000000000000000000000081526004016107a690611b0c565b60405180910390fd5b600460008573ffffffffffffffffffffffffffffffffffffffff1673ffffffffffffffffffffffffffffffffffffffff168152602001908152602001600020600084815260200190815260200160002060040160009054906101000a900460ff1615610850576040517f08c379a000000000000000000000000000000000000000000000000000000000815260040161084790611b9e565b60405180910390fd5b6040518060a001604052803373ffffffffffffffffffffffffffffffffffffffff1681526020018573ffffffffffffffffffffffffffffffffffffffff16815260200184815260200183815260200160011515815250600460008673ffffffffffffffffffffffffffffffffffffffff1673ffffffffffffffffffffffffffffffffffffffff168152602001908152602001600020600085815260200190815260200160002060008201518160000160006101000a81548173ffffffffffffffffffffffffffffffffffffffff021916908373ffffffffffffffffffffffffffffffffffffffff16021790555060208201518160010160006101000a81548173ffffffffffffffffffffffffffffffffffffffff021916908373ffffffffffffffffffffffffffffffffffffffff160217905550604082015181600201556060820151816003015560808201518160040160006101000a81548160ff021916908315150217905550905050828473ffffffffffffffffffffffffffffffffffffffff163373ffffffffffffffffffffffffffffffffffffffff167fd547e933094f12a9159076970143ebe73234e64480317844b0dcb36117116de485604051610a1991906117ac565b60405180910390a450610a2a61157f565b505050565b60035481565b60008060009054906101000a900473ffffffffffffffffffffffffffffffffffffffff16905090565b610a66611539565b6000600460008473ffffffffffffffffffffffffffffffffffffffff1673ffffffffffffffffffffffffffffffffffffffff168152602001908152602001600020600083815260200190815260200160002090508060040160009054906101000a900460ff16610b0b576040517f08c379a0000000000000000000000000000000000000000000000000000000008152600401610b0290611c30565b60405180910390fd5b80600301543414610b51576040517f08c379a0000000000000000000000000000000000000000000000000000000008152600401610b4890611cc2565b60405180910390fd5b3373ffffffffffffffffffffffffffffffffffffffff168160000160009054906101000a900473ffffffffffffffffffffffffffffffffffffffff1673ffffffffffffffffffffffffffffffffffffffff1603610be3576040517f08c379a0000000000000000000000000000000000000000000000000000000008152600401610bda90611d54565b60405180910390fd5b60008160000160009054906101000a900473ffffffffffffffffffffffffffffffffffffffff16905060008260030154905060008360040160006101000a81548160ff021916908315150217905550600061271060035483610c459190611da3565b610c4f9190611e14565b90506000808773ffffffffffffffffffffffffffffffffffffffff16632a55205a88866040518363ffffffff1660e01b8152600401610c8f929190611e45565b6040805180830381865afa925050508015610cc857506040513d601f19601f82011682018060405250810190610cc59190611e83565b60015b15610d1957600073ffffffffffffffffffffffffffffffffffffffff168273ffffffffffffffffffffffffffffffffffffffff1614158015610d0a5750600081115b15610d16578192508093505b50505b838284610d269190611ec3565b1115610d67576040517f08c379a0000000000000000000000000000000000000000000000000000000008152600401610d5e90611f69565b60405180910390fd5b6000828486610d769190611f89565b610d809190611f89565b90508873ffffffffffffffffffffffffffffffffffffffff166342842e0e87338b6040518463ffffffff1660e01b8152600401610dbf93929190611fbd565b600060405180830381600087803b158015610dd957600080fd5b505af1158015610ded573d6000803e3d6000fd5b505050506000841115610eca576000600260009054906101000a900473ffffffffffffffffffffffffffffffffffffffff1673ffffffffffffffffffffffffffffffffffffffff1685604051610e4290612025565b60006040518083038185875af1925050503d8060008114610e7f576040519150601f19603f3d011682016040523d82523d6000602084013e610e84565b606091505b5050905080610ec8576040517f08c379a0000000000000000000000000000000000000000000000000000000008152600401610ebf906120ac565b60405180910390fd5b505b600083118015610f075750600073ffffffffffffffffffffffffffffffffffffffff168273ffffffffffffffffffffffffffffffffffffffff1614155b15610fba5760008273ffffffffffffffffffffffffffffffffffffffff1684604051610f3290612025565b60006040518083038185875af1925050503d8060008114610f6f576040519150601f19603f3d011682016040523d82523d6000602084013e610f74565b606091505b5050905080610fb8576040517f08c379a0000000000000000000000000000000000000000000000000000000008152600401610faf9061213e565b60405180910390fd5b505b60008673ffffffffffffffffffffffffffffffffffffffff1682604051610fe090612025565b60006040518083038185875af1925050503d806000811461101d576040519150601f19603f3d011682016040523d82523d6000602084013e611022565b606091505b5050905080611066576040517f08c379a000000000000000000000000000000000000000000000000000000000815260040161105d906121d0565b60405180910390fd5b8673ffffffffffffffffffffffffffffffffffffffff16898b73ffffffffffffffffffffffffffffffffffffffff167f5478ad3f04f76c56cdccdbf76c58bc9a46a20205d5264da270a05e23ca683ac0338a8a8a6040516110ca94939291906121f0565b60405180910390a450505050505050506110e261157f565b5050565b6110ee611539565b6000600460008473ffffffffffffffffffffffffffffffffffffffff1673ffffffffffffffffffffffffffffffffffffffff168152602001908152602001600020600083815260200190815260200160002090508060040160009054906101000a900460ff16611193576040517f08c379a000000000000000000000000000000000000000000000000000000000815260040161118a906122a7565b60405180910390fd5b3373ffffffffffffffffffffffffffffffffffffffff168160000160009054906101000a900473ffffffffffffffffffffffffffffffffffffffff1673ffffffffffffffffffffffffffffffffffffffff1614611225576040517f08c379a000000000000000000000000000000000000000000000000000000000815260040161121c90612339565b60405180910390fd5b60008160040160006101000a81548160ff021916908315150217905550818373ffffffffffffffffffffffffffffffffffffffff163373ffffffffffffffffffffffffffffffffffffffff167fe1bfe61cb157e0896411ccf9a5c40e4c346f7bb6e1d2a44de4a724f0cb5c6fb060405160405180910390a4506112a661157f565b5050565b6112b26113ee565b6127108111156112f7576040517f08c379a00000000000000000000000000000000000000000000000000000000081526004016112ee906123cb565b60405180910390fd5b60006003549050816003819055507ff4b9cde47c67b2b563d8b95f018afcffff71d3f8c847d36a89beb50733d6c9df8183604051611336929190611e45565b60405180910390a15050565b600260009054906101000a900473ffffffffffffffffffffffffffffffffffffffff1681565b6113706113ee565b600073ffffffffffffffffffffffffffffffffffffffff168173ffffffffffffffffffffffffffffffffffffffff16036113e25760006040517f1e4fbdf70000000000000000000000000000000000000000000000000000000081526004016113d991906117c7565b60405180910390fd5b6113eb81611475565b50565b6113f6611588565b73ffffffffffffffffffffffffffffffffffffffff16611414610a35565b73ffffffffffffffffffffffffffffffffffffffff161461147357611437611588565b6040517f118cdaa700000000000000000000000000000000000000000000000000000000815260040161146a91906117c7565b60405180910390fd5b565b60008060009054906101000a900473ffffffffffffffffffffffffffffffffffffffff169050816000806101000a81548173ffffffffffffffffffffffffffffffffffffffff021916908373ffffffffffffffffffffffffffffffffffffffff1602179055508173ffffffffffffffffffffffffffffffffffffffff168173ffffffffffffffffffffffffffffffffffffffff167f8be0079c531659141344cd1fd0a4f28419497f9722a3daafe3b4186f6b6457e060405160405180910390a35050565b600260015403611575576040517f3ee5aeb500000000000000000000000000000000000000000000000000000000815260040160405180910390fd5b6002600181905550565b60018081905550565b600033905090565b600080fd5b600073ffffffffffffffffffffffffffffffffffffffff82169050919050565b60006115c082611595565b9050919050565b6115d0816115b5565b81146115db57600080fd5b50565b6000813590506115ed816115c7565b92915050565b6000819050919050565b611606816115f3565b811461161157600080fd5b50565b600081359050611623816115fd565b92915050565b600080604083850312156116405761163f611590565b5b600061164e858286016115de565b925050602061165f85828601611614565b9150509250929050565b611672816115b5565b82525050565b611681816115f3565b82525050565b60008115159050919050565b61169c81611687565b82525050565b600060a0820190506116b76000830188611669565b6116c46020830187611669565b6116d16040830186611678565b6116de6060830185611678565b6116eb6080830184611693565b9695505050505050565b60006020828403121561170b5761170a611590565b5b6000611719848285016115de565b91505092915050565b60006060820190506117376000830186611669565b6117446020830185611678565b6117516040830184611693565b949350505050565b60008060006060848603121561177257611771611590565b5b6000611780868287016115de565b935050602061179186828701611614565b92505060406117a286828701611614565b9150509250925092565b60006020820190506117c16000830184611678565b92915050565b60006020820190506117dc6000830184611669565b92915050565b6000602082840312156117f8576117f7611590565b5b600061180684828501611614565b91505092915050565b600082825260208201905092915050565b7f4d61726b6574706c6163653a204e657720726563697069656e742063616e6e6f60008201527f74206265207a65726f2061646472657373000000000000000000000000000000602082015250565b600061187c60318361180f565b915061188782611820565b604082019050919050565b600060208201905081810360008301526118ab8161186f565b9050919050565b60006040820190506118c76000830185611669565b6118d46020830184611669565b9392505050565b7f4d61726b6574706c6163653a205072696365206d75737420626520677265617460008201527f6572207468616e207a65726f0000000000000000000000000000000000000000602082015250565b6000611937602c8361180f565b9150611942826118db565b604082019050919050565b600060208201905081810360008301526119668161192a565b9050919050565b60008151905061197c816115c7565b92915050565b60006020828403121561199857611997611590565b5b60006119a68482850161196d565b91505092915050565b7f4d61726b6574706c6163653a20596f7520617265206e6f7420746865206f776e60008201527f6572206f662074686973204e4654000000000000000000000000000000000000602082015250565b6000611a0b602e8361180f565b9150611a16826119af565b604082019050919050565b60006020820190508181036000830152611a3a816119fe565b9050919050565b611a4a81611687565b8114611a5557600080fd5b50565b600081519050611a6781611a41565b92915050565b600060208284031215611a8357611a82611590565b5b6000611a9184828501611a58565b91505092915050565b7f4d61726b6574706c6163653a20436f6e7472616374206e6f7420617070726f7660008201527f656420746f207472616e736665722074686973204e4654000000000000000000602082015250565b6000611af660378361180f565b9150611b0182611a9a565b604082019050919050565b60006020820190508181036000830152611b2581611ae9565b9050919050565b7f4d61726b6574706c6163653a204974656d20697320616c7265616479206c697360008201527f7465642e2043616e63656c20666972737420746f2072656c6973742e00000000602082015250565b6000611b88603c8361180f565b9150611b9382611b2c565b604082019050919050565b60006020820190508181036000830152611bb781611b7b565b9050919050565b7f4d61726b6574706c6163653a204974656d206973206e6f74206163746976656c60008201527f79206c6973746564206f7220616c726561647920736f6c640000000000000000602082015250565b6000611c1a60388361180f565b9150611c2582611bbe565b604082019050919050565b60006020820190508181036000830152611c4981611c0d565b9050919050565b7f4d61726b6574706c6163653a20496e636f72726563742045544820616d6f756e60008201527f742073656e742e20506c656173652073656e642065786163742070726963652e602082015250565b6000611cac60408361180f565b9150611cb782611c50565b604082019050919050565b60006020820190508181036000830152611cdb81611c9f565b9050919050565b7f4d61726b6574706c6163653a2042757965722063616e6e6f742062652074686560008201527f2073656c6c657200000000000000000000000000000000000000000000000000602082015250565b6000611d3e60278361180f565b9150611d4982611ce2565b604082019050919050565b60006020820190508181036000830152611d6d81611d31565b9050919050565b7f4e487b7100000000000000000000000000000000000000000000000000000000600052601160045260246000fd5b6000611dae826115f3565b9150611db9836115f3565b9250828202611dc7816115f3565b91508282048414831517611dde57611ddd611d74565b5b5092915050565b7f4e487b7100000000000000000000000000000000000000000000000000000000600052601260045260246000fd5b6000611e1f826115f3565b9150611e2a836115f3565b925082611e3a57611e39611de5565b5b828204905092915050565b6000604082019050611e5a6000830185611678565b611e676020830184611678565b9392505050565b600081519050611e7d816115fd565b92915050565b60008060408385031215611e9a57611e99611590565b5b6000611ea88582860161196d565b9250506020611eb985828601611e6e565b9150509250929050565b6000611ece826115f3565b9150611ed9836115f3565b9250828201905080821115611ef157611ef0611d74565b5b92915050565b7f4d61726b6574706c6163653a20466565732065786365656420746f74616c207060008201527f7269636500000000000000000000000000000000000000000000000000000000602082015250565b6000611f5360248361180f565b9150611f5e82611ef7565b604082019050919050565b60006020820190508181036000830152611f8281611f46565b9050919050565b6000611f94826115f3565b9150611f9f836115f3565b9250828203905081811115611fb757611fb6611d74565b5b92915050565b6000606082019050611fd26000830186611669565b611fdf6020830185611669565b611fec6040830184611678565b949350505050565b600081905092915050565b50565b600061200f600083611ff4565b915061201a82611fff565b600082019050919050565b600061203082612002565b9150819050919050565b7f4d61726b6574706c6163653a20506c6174666f726d20666565207472616e736660008201527f6572206661696c65640000000000000000000000000000000000000000000000602082015250565b600061209660298361180f565b91506120a18261203a565b604082019050919050565b600060208201905081810360008301526120c581612089565b9050919050565b7f4d61726b6574706c6163653a20526f79616c747920666565207472616e73666560008201527f72206661696c6564000000000000000000000000000000000000000000000000602082015250565b600061212860288361180f565b9150612133826120cc565b604082019050919050565b600060208201905081810360008301526121578161211b565b9050919050565b7f4d61726b6574706c6163653a2053656c6c65722070726f63656564732074726160008201527f6e73666572206661696c65640000000000000000000000000000000000000000602082015250565b60006121ba602c8361180f565b91506121c58261215e565b604082019050919050565b600060208201905081810360008301526121e9816121ad565b9050919050565b60006080820190506122056000830187611669565b6122126020830186611678565b61221f6040830185611678565b61222c6060830184611678565b95945050505050565b7f4d61726b6574706c6163653a204974656d206973206e6f74206163746976656c60008201527f79206c6973746564000000000000000000000000000000000000000000000000602082015250565b600061229160288361180f565b915061229c82612235565b604082019050919050565b600060208201905081810360008301526122c081612284565b9050919050565b7f4d61726b6574706c6163653a20596f7520617265206e6f74207468652073656c60008201527f6c6572206f662074686973206c697374696e6700000000000000000000000000602082015250565b600061232360338361180f565b915061232e826122c7565b604082019050919050565b6000602082019050818103600083015261235281612316565b9050919050565b7f4d61726b6574706c6163653a20506c6174666f726d206665652070657263656e60008201527f742063616e6e6f74206578636565642031303030300000000000000000000000602082015250565b60006123b560358361180f565b91506123c082612359565b604082019050919050565b600060208201905081810360008301526123e4816123a8565b905091905056fea2646970667358221220a1324d2b22e2446aa2a460eca076d6c1a8be86303c397857d67e6f812bf6673864736f6c63430008140033",
  "linkReferences": {},
  "deployedLinkReferences": {}
}