{
  "_format": "hh-sol-artifact-1",
  "contractName": "MyNFT",
  "sourceName": "contracts/MyNFT.sol",
  "abi": [
    {
      "inputs": [
        {
          "internalType": "string",
          "name": "name_",
          "type": "string"
        },
        {
          "internalType": "string",
          "name": "symbol_",
          "type": "string"
        },
        {
          "internalType": "address",
          "name": "initialContractOwner",
          "type": "address"
        },
        {
          "internalType": "address",
          "name": "defaultRoyaltyReceiver_",
          "type": "address"
        },
        {
          "internalType": "uint96",
          "name": "defaultRoyaltyFraction_",
          "type": "uint96"
        }
      ],
      "stateMutability": "nonpayable",
      "type": "constructor"
    },
    {
      "inputs": [
        {
          "internalType": "uint256",
          "name": "numerator",
          "type": "uint256"
        },
        {
          "internalType": "uint256",
          "name": "denominator",
          "type": "uint256"
        }
      ],
      "name": "ERC2981InvalidDefaultRoyalty",
      "type": "error"
    },
    {
      "inputs": [
        {
          "internalType": "address",
          "name": "receiver",
          "type": "address"
        }
      ],
      "name": "ERC2981InvalidDefaultRoyaltyReceiver",
      "type": "error"
    },
    {
      "inputs": [
        {
          "internalType": "uint256",
          "name": "tokenId",
          "type": "uint256"
        },
        {
          "internalType": "uint256",
          "name": "numerator",
          "type": "uint256"
        },
        {
          "internalType": "uint256",
          "name": "denominator",
          "type": "uint256"
        }
      ],
      "name": "ERC2981InvalidTokenRoyalty",
      "type": "error"
    },
    {
      "inputs": [
        {
          "internalType": "uint256",
          "name": "tokenId",
          "type": "uint256"
        },
        {
          "internalType": "address",
          "name": "receiver",
          "type": "address"
        }
      ],
      "name": "ERC2981InvalidTokenRoyaltyReceiver",
      "type": "error"
    },
    {
      "inputs": [
        {
          "internalType": "address",
          "name": "sender",
          "type": "address"
        },
        {
          "internalType": "uint256",
          "name": "tokenId",
          "type": "uint256"
        },
        {
          "internalType": "address",
          "name": "owner",
          "type": "address"
        }
      ],
      "name": "ERC721IncorrectOwner",
      "type": "error"
    },
    {
      "inputs": [
        {
          "internalType": "address",
          "name": "operator",
          "type": "address"
        },
        {
          "internalType": "uint256",
          "name": "tokenId",
          "type": "uint256"
        }
      ],
      "name": "ERC721InsufficientApproval",
      "type": "error"
    },
    {
      "inputs": [
        {
          "internalType": "address",
          "name": "approver",
          "type": "address"
        }
      ],
      "name": "ERC721InvalidApprover",
      "type": "error"
    },
    {
      "inputs": [
        {
          "internalType": "address",
          "name": "operator",
          "type": "address"
        }
      ],
      "name": "ERC721InvalidOperator",
      "type": "error"
    },
    {
      "inputs": [
        {
          "internalType": "address",
          "name": "owner",
          "type": "address"
        }
      ],
      "name": "ERC721InvalidOwner",
      "type": "error"
    },
    {
      "inputs": [
        {
          "internalType": "address",
          "name": "receiver",
          "type": "address"
        }
      ],
      "name": "ERC721InvalidReceiver",
      "type": "error"
    },
    {
      "inputs": [
        {
          "internalType": "address",
          "name": "sender",
          "type": "address"
        }
      ],
      "name": "ERC721InvalidSender",
      "type": "error"
    },
    {
      "inputs": [
        {
          "internalType": "uint256",
          "name": "tokenId",
          "type": "uint256"
        }
      ],
      "name": "ERC721NonexistentToken",
      "type": "error"
    },
    {
      "inputs": [
        {
          "internalType": "address",
          "name": "owner",
          "type": "address"
        }
      ],
      "name": "OwnableInvalidOwner",
      "type": "error"
    },
    {
      "inputs": [
        {
          "internalType": "address",
          "name": "account",
          "type": "address"
        }
      ],
      "name": "OwnableUnauthorizedAccount",
      "type": "error"
    },
    {
      "anonymous": false,
      "inputs": [
        {
          "indexed": true,
          "internalType": "address",
          "name": "owner",
          "type": "address"
        },
        {
          "indexed": true,
          "internalType": "address",
          "name": "approved",
          "type": "address"
        },
        {
          "indexed": true,
          "internalType": "uint256",
          "name": "tokenId",
          "type": "uint256"
        }
      ],
      "name": "Approval",
      "type": "event"
    },
    {
      "anonymous": false,
      "inputs": [
        {
          "indexed": true,
          "internalType": "address",
          "name": "owner",
          "type": "address"
        },
        {
          "indexed": true,
          "internalType": "address",
          "name": "operator",
          "type": "address"
        },
        {
          "indexed": false,
          "internalType": "bool",
          "name": "approved",
          "type": "bool"
        }
      ],
      "name": "ApprovalForAll",
      "type": "event"
    },
    {
      "anonymous": false,
      "inputs": [
        {
          "indexed": false,
          "internalType": "uint256",
          "name": "_fromTokenId",
          "type": "uint256"
        },
        {
          "indexed": false,
          "internalType": "uint256",
          "name": "_toTokenId",
          "type": "uint256"
        }
      ],
      "name": "BatchMetadataUpdate",
      "type": "event"
    },
    {
      "anonymous": false,
      "inputs": [
        {
          "indexed": false,
          "internalType": "uint256",
          "name": "_tokenId",
          "type": "uint256"
        }
      ],
      "name": "MetadataUpdate",
      "type": "event"
    },
    {
      "anonymous": false,
      "inputs": [
        {
          "indexed": true,
          "internalType": "address",
          "name": "recipient",
          "type": "address"
        },
        {
          "indexed": true,
          "internalType": "uint256",
          "name": "tokenId",
          "type": "uint256"
        },
        {
          "indexed": false,
          "internalType": "string",
          "name": "tokenURI",
          "type": "string"
        }
      ],
      "name": "NFTMinted",
      "type": "event"
    },
    {
      "anonymous": false,
      "inputs": [
        {
          "indexed": true,
          "internalType": "address",
          "name": "previousOwner",
          "type": "address"
        },
        {
          "indexed": true,
          "internalType": "address",
          "name": "newOwner",
          "type": "address"
        }
      ],
      "name": "OwnershipTransferred",
      "type": "event"
    },
    {
      "anonymous": false,
      "inputs": [
        {
          "indexed": true,
          "internalType": "address",
          "name": "from",
          "type": "address"
        },
        {
          "indexed": true,
          "internalType": "address",
          "name": "to",
          "type": "address"
        },
        {
          "indexed": true,
          "internalType": "uint256",
          "name": "tokenId",
          "type": "uint256"
        }
      ],
      "name": "Transfer",
      "type": "event"
    },
    {
      "inputs": [
        {
          "internalType": "address",
          "name": "to",
          "type": "address"
        },
        {
          "internalType": "uint256",
          "name": "tokenId",
          "type": "uint256"
        }
      ],
      "name": "approve",
      "outputs": [],
      "stateMutability": "nonpayable",
      "type": "function"
    },
    {
      "inputs": [
        {
          "internalType": "address",
          "name": "owner",
          "type": "address"
        }
      ],
      "name": "balanceOf",
      "outputs": [
        {
          "internalType": "uint256",
          "name": "",
          "type": "uint256"
        }
      ],
      "stateMutability": "view",
      "type": "function"
    },
    {
      "inputs": [
        {
          "internalType": "uint256",
          "name": "tokenId",
          "type": "uint256"
        }
      ],
      "name": "getApproved",
      "outputs": [
        {
          "internalType": "address",
          "name": "",
          "type": "address"
        }
      ],
      "stateMutability": "view",
      "type": "function"
    },
    {
      "inputs": [
        {
          "internalType": "address",
          "name": "owner",
          "type": "address"
        },
        {
          "internalType": "address",
          "name": "operator",
          "type": "address"
        }
      ],
      "name": "isApprovedForAll",
      "outputs": [
        {
          "internalType": "bool",
          "name": "",
          "type": "bool"
        }
      ],
      "stateMutability": "view",
      "type": "function"
    },
    {
      "inputs": [],
      "name": "name",
      "outputs": [
        {
          "internalType": "string",
          "name": "",
          "type": "string"
        }
      ],
      "stateMutability": "view",
      "type": "function"
    },
    {
      "inputs": [],
      "name": "owner",
      "outputs": [
        {
          "internalType": "address",
          "name": "",
          "type": "address"
        }
      ],
      "stateMutability": "view",
      "type": "function"
    },
    {
      "inputs": [
        {
          "internalType": "uint256",
          "name": "tokenId",
          "type": "uint256"
        }
      ],
      "name": "ownerOf",
      "outputs": [
        {
          "internalType": "address",
          "name": "",
          "type": "address"
        }
      ],
      "stateMutability": "view",
      "type": "function"
    },
    {
      "inputs": [],
      "name": "renounceOwnership",
      "outputs": [],
      "stateMutability": "nonpayable",
      "type": "function"
    },
    {
      "inputs": [
        {
          "internalType": "uint256",
          "name": "tokenId",
          "type": "uint256"
        }
      ],
      "name": "resetTokenRoyalty",
      "outputs": [],
      "stateMutability": "nonpayable",
      "type": "function"
    },
    {
      "inputs": [
        {
          "internalType": "uint256",
          "name": "tokenId",
          "type": "uint256"
        },
        {
          "internalType": "uint256",
          "name": "salePrice",
          "type": "uint256"
        }
      ],
      "name": "royaltyInfo",
      "outputs": [
        {
          "internalType": "address",
          "name": "receiver",
          "type": "address"
        },
        {
          "internalType": "uint256",
          "name": "amount",
          "type": "uint256"
        }
      ],
      "stateMutability": "view",
      "type": "function"
    },
    {
      "inputs": [
        {
          "internalType": "address",
          "name": "recipient",
          "type": "address"
        },
        {
          "internalType": "string",
          "name": "tokenURI",
          "type": "string"
        }
      ],
      "name": "safeMint",
      "outputs": [
        {
          "internalType": "uint256",
          "name": "",
          "type": "uint256"
        }
      ],
      "stateMutability": "nonpayable",
      "type": "function"
    },
    {
      "inputs": [
        {
          "internalType": "address",
          "name": "from",
          "type": "address"
        },
        {
          "internalType": "address",
          "name": "to",
          "type": "address"
        },
        {
          "internalType": "uint256",
          "name": "tokenId",
          "type": "uint256"
        }
      ],
      "name": "safeTransferFrom",
      "outputs": [],
      "stateMutability": "nonpayable",
      "type": "function"
    },
    {
      "inputs": [
        {
          "internalType": "address",
          "name": "from",
          "type": "address"
        },
        {
          "internalType": "address",
          "name": "to",
          "type": "address"
        },
        {
          "internalType": "uint256",
          "name": "tokenId",
          "type": "uint256"
        },
        {
          "internalType": "bytes",
          "name": "data",
          "type": "bytes"
        }
      ],
      "name": "safeTransferFrom",
      "outputs": [],
      "stateMutability": "nonpayable",
      "type": "function"
    },
    {
      "inputs": [
        {
          "internalType": "address",
          "name": "operator",
          "type": "address"
        },
        {
          "internalType": "bool",
          "name": "approved",
          "type": "bool"
        }
      ],
      "name": "setApprovalForAll",
      "outputs": [],
      "stateMutability": "nonpayable",
      "type": "function"
    },
    {
      "inputs": [
        {
          "internalType": "address",
          "name": "receiver",
          "type": "address"
        },
        {
          "internalType": "uint96",
          "name": "feeNumerator",
          "type": "uint96"
        }
      ],
      "name": "setDefaultRoyalty",
      "outputs": [],
      "stateMutability": "nonpayable",
      "type": "function"
    },
    {
      "inputs": [
        {
          "internalType": "uint256",
          "name": "tokenId",
          "type": "uint256"
        },
        {
          "internalType": "address",
          "name": "receiver",
          "type": "address"
        },
        {
          "internalType": "uint96",
          "name": "feeNumerator",
          "type": "uint96"
        }
      ],
      "name": "setTokenRoyalty",
      "outputs": [],
      "stateMutability": "nonpayable",
      "type": "function"
    },
    {
      "inputs": [
        {
          "internalType": "bytes4",
          "name": "interfaceId",
          "type": "bytes4"
        }
      ],
      "name": "supportsInterface",
      "outputs": [
        {
          "internalType": "bool",
          "name": "",
          "type": "bool"
        }
      ],
      "stateMutability": "view",
      "type": "function"
    },
    {
      "inputs": [],
      "name": "symbol",
      "outputs": [
        {
          "internalType": "string",
          "name": "",
          "type": "string"
        }
      ],
      "stateMutability": "view",
      "type": "function"
    },
    {
      "inputs": [
        {
          "internalType": "uint256",
          "name": "tokenId",
          "type": "uint256"
        }
      ],
      "name": "tokenURI",
      "outputs": [
        {
          "internalType": "string",
          "name": "",
          "type": "string"
        }
      ],
      "stateMutability": "view",
      "type": "function"
    },
    {
      "inputs": [
        {
          "internalType": "address",
          "name": "from",
          "type": "address"
        },
        {
          "internalType": "address",
          "name": "to",
          "type": "address"
        },
        {
          "internalType": "uint256",
          "name": "tokenId",
          "type": "uint256"
        }
      ],
      "name": "transferFrom",
      "outputs": [],
      "stateMutability": "nonpayable",
      "type": "function"
    },
    {
      "inputs": [
        {
          "internalType": "address",
          "name": "newOwner",
          "type": "address"
        }
      ],
      "name": "transferOwnership",
      "outputs": [],
      "stateMutability": "nonpayable",
      "type": "function"
    }
  ],
  "bytecode": "0x60806040526001600a553480156200001657600080fd5b5060405162003c8a38038062003c8a83398181016040528101906200003c91906200063c565b82858581600090816200005091906200094d565b5080600190816200006291906200094d565b505050600073ffffffffffffffffffffffffffffffffffffffff168173ffffffffffffffffffffffffffffffffffffffff1603620000da5760006040517f1e4fbdf7000000000000000000000000000000000000000000000000000000008152600401620000d1919062000a45565b60405180910390fd5b620000eb816200017b60201b60201c565b50600073ffffffffffffffffffffffffffffffffffffffff168273ffffffffffffffffffffffffffffffffffffffff16036200015e576040517f08c379a0000000000000000000000000000000000000000000000000000000008152600401620001559062000ae9565b60405180910390fd5b6200017082826200024160201b60201c565b505050505062000b82565b6000600960009054906101000a900473ffffffffffffffffffffffffffffffffffffffff16905081600960006101000a81548173ffffffffffffffffffffffffffffffffffffffff021916908373ffffffffffffffffffffffffffffffffffffffff1602179055508173ffffffffffffffffffffffffffffffffffffffff168173ffffffffffffffffffffffffffffffffffffffff167f8be0079c531659141344cd1fd0a4f28419497f9722a3daafe3b4186f6b6457e060405160405180910390a35050565b600062000253620003f160201b60201c565b6bffffffffffffffffffffffff16905080826bffffffffffffffffffffffff161115620002bb5781816040517f6f483d09000000000000000000000000000000000000000000000000000000008152600401620002b292919062000b55565b60405180910390fd5b600073ffffffffffffffffffffffffffffffffffffffff168373ffffffffffffffffffffffffffffffffffffffff1603620003305760006040517fb6d9900a00000000000000000000000000000000000000000000000000000000815260040162000327919062000a45565b60405180910390fd5b60405180604001604052808473ffffffffffffffffffffffffffffffffffffffff168152602001836bffffffffffffffffffffffff16815250600760008201518160000160006101000a81548173ffffffffffffffffffffffffffffffffffffffff021916908373ffffffffffffffffffffffffffffffffffffffff16021790555060208201518160000160146101000a8154816bffffffffffffffffffffffff02191690836bffffffffffffffffffffffff160217905550905050505050565b6000612710905090565b6000604051905090565b600080fd5b600080fd5b600080fd5b600080fd5b6000601f19601f8301169050919050565b7f4e487b7100000000000000000000000000000000000000000000000000000000600052604160045260246000fd5b620004648262000419565b810181811067ffffffffffffffff821117156200048657620004856200042a565b5b80604052505050565b60006200049b620003fb565b9050620004a9828262000459565b919050565b600067ffffffffffffffff821115620004cc57620004cb6200042a565b5b620004d78262000419565b9050602081019050919050565b60005b8381101562000504578082015181840152602081019050620004e7565b60008484015250505050565b6000620005276200052184620004ae565b6200048f565b90508281526020810184848401111562000546576200054562000414565b5b62000553848285620004e4565b509392505050565b600082601f8301126200057357620005726200040f565b5b81516200058584826020860162000510565b91505092915050565b600073ffffffffffffffffffffffffffffffffffffffff82169050919050565b6000620005bb826200058e565b9050919050565b620005cd81620005ae565b8114620005d957600080fd5b50565b600081519050620005ed81620005c2565b92915050565b60006bffffffffffffffffffffffff82169050919050565b6200061681620005f3565b81146200062257600080fd5b50565b60008151905062000636816200060b565b92915050565b600080600080600060a086880312156200065b576200065a62000405565b5b600086015167ffffffffffffffff8111156200067c576200067b6200040a565b5b6200068a888289016200055b565b955050602086015167ffffffffffffffff811115620006ae57620006ad6200040a565b5b620006bc888289016200055b565b9450506040620006cf88828901620005dc565b9350506060620006e288828901620005dc565b9250506080620006f58882890162000625565b9150509295509295909350565b600081519050919050565b7f4e487b7100000000000000000000000000000000000000000000000000000000600052602260045260246000fd5b600060028204905060018216806200075557607f821691505b6020821081036200076b576200076a6200070d565b5b50919050565b60008190508160005260206000209050919050565b60006020601f8301049050919050565b600082821b905092915050565b600060088302620007d57fffffffffffffffffffffffffffffffffffffffffffffffffffffffffffffffff8262000796565b620007e1868362000796565b95508019841693508086168417925050509392505050565b6000819050919050565b6000819050919050565b60006200082e620008286200082284620007f9565b62000803565b620007f9565b9050919050565b6000819050919050565b6200084a836200080d565b62000862620008598262000835565b848454620007a3565b825550505050565b600090565b620008796200086a565b620008868184846200083f565b505050565b5b81811015620008ae57620008a26000826200086f565b6001810190506200088c565b5050565b601f821115620008fd57620008c78162000771565b620008d28462000786565b81016020851015620008e2578190505b620008fa620008f18562000786565b8301826200088b565b50505b505050565b600082821c905092915050565b6000620009226000198460080262000902565b1980831691505092915050565b60006200093d83836200090f565b9150826002028217905092915050565b620009588262000702565b67ffffffffffffffff8111156200097457620009736200042a565b5b6200098082546200073c565b6200098d828285620008b2565b600060209050601f831160018114620009c55760008415620009b0578287015190505b620009bc85826200092f565b86555062000a2c565b601f198416620009d58662000771565b60005b82811015620009ff57848901518255600182019150602085019450602081019050620009d8565b8683101562000a1f578489015162000a1b601f8916826200090f565b8355505b6001600288020188555050505b505050505050565b62000a3f81620005ae565b82525050565b600060208201905062000a5c600083018462000a34565b92915050565b600082825260208201905092915050565b7f4d794e46543a20526f79616c7479207265636569766572206973207a65726f2060008201527f6164647265737300000000000000000000000000000000000000000000000000602082015250565b600062000ad160278362000a62565b915062000ade8262000a73565b604082019050919050565b6000602082019050818103600083015262000b048162000ac2565b9050919050565b600062000b2c62000b2662000b2084620005f3565b62000803565b620007f9565b9050919050565b62000b3e8162000b0b565b82525050565b62000b4f81620007f9565b82525050565b600060408201905062000b6c600083018562000b33565b62000b7b602083018462000b44565b9392505050565b6130f88062000b926000396000f3fe608060405234801561001057600080fd5b50600436106101375760003560e01c806370a08231116100b8578063a22cb4651161007c578063a22cb46514610339578063b88d4fde14610355578063c87b56dd14610371578063d204c45e146103a1578063e985e9c5146103d1578063f2fde38b1461040157610137565b806370a08231146102a7578063715018a6146102d75780638a616bc0146102e15780638da5cb5b146102fd57806395d89b411461031b57610137565b806323b872dd116100ff57806323b872dd146101f25780632a55205a1461020e57806342842e0e1461023f5780635944c7531461025b5780636352211e1461027757610137565b806301ffc9a71461013c57806304634d8d1461016c57806306fdde0314610188578063081812fc146101a6578063095ea7b3146101d6575b600080fd5b6101566004803603810190610151919061227a565b61041d565b60405161016391906122c2565b60405180910390f35b6101866004803603810190610181919061237f565b61042f565b005b6101906104b4565b60405161019d919061244f565b60405180910390f35b6101c060048036038101906101bb91906124a7565b610546565b6040516101cd91906124e3565b60405180910390f35b6101f060048036038101906101eb91906124fe565b610562565b005b61020c6004803603810190610207919061253e565b610578565b005b61022860048036038101906102239190612591565b61067a565b6040516102369291906125e0565b60405180910390f35b6102596004803603810190610254919061253e565b6107aa565b005b61027560048036038101906102709190612609565b6107ca565b005b610291600480360381019061028c91906124a7565b610851565b60405161029e91906124e3565b60405180910390f35b6102c160048036038101906102bc919061265c565b610863565b6040516102ce9190612689565b60405180910390f35b6102df61091d565b005b6102fb60048036038101906102f691906124a7565b610931565b005b610305610945565b60405161031291906124e3565b60405180910390f35b61032361096f565b604051610330919061244f565b60405180910390f35b610353600480360381019061034e91906126d0565b610a01565b005b61036f600480360381019061036a9190612845565b610a17565b005b61038b600480360381019061038691906124a7565b610a3c565b604051610398919061244f565b60405180910390f35b6103bb60048036038101906103b69190612969565b610b4f565b6040516103c89190612689565b60405180910390f35b6103eb60048036038101906103e691906129c5565b610be5565b6040516103f891906122c2565b60405180910390f35b61041b6004803603810190610416919061265c565b610c79565b005b600061042882610cff565b9050919050565b610437610d79565b600073ffffffffffffffffffffffffffffffffffffffff168273ffffffffffffffffffffffffffffffffffffffff16036104a6576040517f08c379a000000000000000000000000000000000000000000000000000000000815260040161049d90612a77565b60405180910390fd5b6104b08282610e00565b5050565b6060600080546104c390612ac6565b80601f01602080910402602001604051908101604052809291908181526020018280546104ef90612ac6565b801561053c5780601f106105115761010080835404028352916020019161053c565b820191906000526020600020905b81548152906001019060200180831161051f57829003601f168201915b5050505050905090565b600061055182610fa2565b5061055b8261102a565b9050919050565b610574828261056f611067565b61106f565b5050565b600073ffffffffffffffffffffffffffffffffffffffff168273ffffffffffffffffffffffffffffffffffffffff16036105ea5760006040517f64a0ae920000000000000000000000000000000000000000000000000000000081526004016105e191906124e3565b60405180910390fd5b60006105fe83836105f9611067565b611081565b90508373ffffffffffffffffffffffffffffffffffffffff168173ffffffffffffffffffffffffffffffffffffffff1614610674578382826040517f64283d7b00000000000000000000000000000000000000000000000000000000815260040161066b93929190612af7565b60405180910390fd5b50505050565b600080600060086000868152602001908152602001600020905060008160000160009054906101000a900473ffffffffffffffffffffffffffffffffffffffff16905060008260000160149054906101000a90046bffffffffffffffffffffffff169050600073ffffffffffffffffffffffffffffffffffffffff168273ffffffffffffffffffffffffffffffffffffffff160361075b57600760000160009054906101000a900473ffffffffffffffffffffffffffffffffffffffff169150600760000160149054906101000a90046bffffffffffffffffffffffff1690505b600061076561129b565b6bffffffffffffffffffffffff16826bffffffffffffffffffffffff168861078d9190612b5d565b6107979190612bce565b9050828195509550505050509250929050565b6107c583838360405180602001604052806000815250610a17565b505050565b6107d2610d79565b600073ffffffffffffffffffffffffffffffffffffffff168273ffffffffffffffffffffffffffffffffffffffff1603610841576040517f08c379a000000000000000000000000000000000000000000000000000000000815260040161083890612a77565b60405180910390fd5b61084c8383836112a5565b505050565b600061085c82610fa2565b9050919050565b60008073ffffffffffffffffffffffffffffffffffffffff168273ffffffffffffffffffffffffffffffffffffffff16036108d65760006040517f89c62b640000000000000000000000000000000000000000000000000000000081526004016108cd91906124e3565b60405180910390fd5b600360008373ffffffffffffffffffffffffffffffffffffffff1673ffffffffffffffffffffffffffffffffffffffff168152602001908152602001600020549050919050565b610925610d79565b61092f600061145d565b565b610939610d79565b61094281611523565b50565b6000600960009054906101000a900473ffffffffffffffffffffffffffffffffffffffff16905090565b60606001805461097e90612ac6565b80601f01602080910402602001604051908101604052809291908181526020018280546109aa90612ac6565b80156109f75780601f106109cc576101008083540402835291602001916109f7565b820191906000526020600020905b8154815290600101906020018083116109da57829003601f168201915b5050505050905090565b610a13610a0c611067565b8383611582565b5050565b610a22848484610578565b610a36610a2d611067565b858585856116f1565b50505050565b6060610a4782610fa2565b506000600660008481526020019081526020016000208054610a6890612ac6565b80601f0160208091040260200160405190810160405280929190818152602001828054610a9490612ac6565b8015610ae15780601f10610ab657610100808354040283529160200191610ae1565b820191906000526020600020905b815481529060010190602001808311610ac457829003601f168201915b505050505090506000610af26118a2565b90506000815103610b07578192505050610b4a565b600082511115610b3c578082604051602001610b24929190612c3b565b60405160208183030381529060405292505050610b4a565b610b45846118b9565b925050505b919050565b6000610b59610d79565b6000600a549050610b6a8482611922565b610b748184611940565b808473ffffffffffffffffffffffffffffffffffffffff167fd35bb95e09c04b219e35047ce7b7b300e3384264ef84a40456943dbc0fc17c1485604051610bbb919061244f565b60405180910390a3600a6000815480929190610bd690612c5f565b91905055508091505092915050565b6000600560008473ffffffffffffffffffffffffffffffffffffffff1673ffffffffffffffffffffffffffffffffffffffff16815260200190815260200160002060008373ffffffffffffffffffffffffffffffffffffffff1673ffffffffffffffffffffffffffffffffffffffff16815260200190815260200160002060009054906101000a900460ff16905092915050565b610c81610d79565b600073ffffffffffffffffffffffffffffffffffffffff168173ffffffffffffffffffffffffffffffffffffffff1603610cf35760006040517f1e4fbdf7000000000000000000000000000000000000000000000000000000008152600401610cea91906124e3565b60405180910390fd5b610cfc8161145d565b50565b60007f2a55205a000000000000000000000000000000000000000000000000000000007bffffffffffffffffffffffffffffffffffffffffffffffffffffffff1916827bffffffffffffffffffffffffffffffffffffffffffffffffffffffff19161480610d725750610d718261199c565b5b9050919050565b610d81611067565b73ffffffffffffffffffffffffffffffffffffffff16610d9f610945565b73ffffffffffffffffffffffffffffffffffffffff1614610dfe57610dc2611067565b6040517f118cdaa7000000000000000000000000000000000000000000000000000000008152600401610df591906124e3565b60405180910390fd5b565b6000610e0a61129b565b6bffffffffffffffffffffffff16905080826bffffffffffffffffffffffff161115610e6f5781816040517f6f483d09000000000000000000000000000000000000000000000000000000008152600401610e66929190612ce2565b60405180910390fd5b600073ffffffffffffffffffffffffffffffffffffffff168373ffffffffffffffffffffffffffffffffffffffff1603610ee15760006040517fb6d9900a000000000000000000000000000000000000000000000000000000008152600401610ed891906124e3565b60405180910390fd5b60405180604001604052808473ffffffffffffffffffffffffffffffffffffffff168152602001836bffffffffffffffffffffffff16815250600760008201518160000160006101000a81548173ffffffffffffffffffffffffffffffffffffffff021916908373ffffffffffffffffffffffffffffffffffffffff16021790555060208201518160000160146101000a8154816bffffffffffffffffffffffff02191690836bffffffffffffffffffffffff160217905550905050505050565b600080610fae836119fd565b9050600073ffffffffffffffffffffffffffffffffffffffff168173ffffffffffffffffffffffffffffffffffffffff160361102157826040517f7e2732890000000000000000000000000000000000000000000000000000000081526004016110189190612689565b60405180910390fd5b80915050919050565b60006004600083815260200190815260200160002060009054906101000a900473ffffffffffffffffffffffffffffffffffffffff169050919050565b600033905090565b61107c8383836001611a3a565b505050565b60008061108d846119fd565b9050600073ffffffffffffffffffffffffffffffffffffffff168373ffffffffffffffffffffffffffffffffffffffff16146110cf576110ce818486611bff565b5b600073ffffffffffffffffffffffffffffffffffffffff168173ffffffffffffffffffffffffffffffffffffffff161461116057611111600085600080611a3a565b6001600360008373ffffffffffffffffffffffffffffffffffffffff1673ffffffffffffffffffffffffffffffffffffffff168152602001908152602001600020600082825403925050819055505b600073ffffffffffffffffffffffffffffffffffffffff168573ffffffffffffffffffffffffffffffffffffffff16146111e3576001600360008773ffffffffffffffffffffffffffffffffffffffff1673ffffffffffffffffffffffffffffffffffffffff168152602001908152602001600020600082825401925050819055505b846002600086815260200190815260200160002060006101000a81548173ffffffffffffffffffffffffffffffffffffffff021916908373ffffffffffffffffffffffffffffffffffffffff160217905550838573ffffffffffffffffffffffffffffffffffffffff168273ffffffffffffffffffffffffffffffffffffffff167fddf252ad1be2c89b69c2b068fc378daa952ba7f163c4a11628f55a4df523b3ef60405160405180910390a4809150509392505050565b6000612710905090565b60006112af61129b565b6bffffffffffffffffffffffff16905080826bffffffffffffffffffffffff161115611316578382826040517fdfd1fc1b00000000000000000000000000000000000000000000000000000000815260040161130d93929190612d0b565b60405180910390fd5b600073ffffffffffffffffffffffffffffffffffffffff168373ffffffffffffffffffffffffffffffffffffffff160361138a578360006040517f969f0852000000000000000000000000000000000000000000000000000000008152600401611381929190612d42565b60405180910390fd5b60405180604001604052808473ffffffffffffffffffffffffffffffffffffffff168152602001836bffffffffffffffffffffffff168152506008600086815260200190815260200160002060008201518160000160006101000a81548173ffffffffffffffffffffffffffffffffffffffff021916908373ffffffffffffffffffffffffffffffffffffffff16021790555060208201518160000160146101000a8154816bffffffffffffffffffffffff02191690836bffffffffffffffffffffffff16021790555090505050505050565b6000600960009054906101000a900473ffffffffffffffffffffffffffffffffffffffff16905081600960006101000a81548173ffffffffffffffffffffffffffffffffffffffff021916908373ffffffffffffffffffffffffffffffffffffffff1602179055508173ffffffffffffffffffffffffffffffffffffffff168173ffffffffffffffffffffffffffffffffffffffff167f8be0079c531659141344cd1fd0a4f28419497f9722a3daafe3b4186f6b6457e060405160405180910390a35050565b60086000828152602001908152602001600020600080820160006101000a81549073ffffffffffffffffffffffffffffffffffffffff02191690556000820160146101000a8154906bffffffffffffffffffffffff0219169055505050565b600073ffffffffffffffffffffffffffffffffffffffff168273ffffffffffffffffffffffffffffffffffffffff16036115f357816040517f5b08ba180000000000000000000000000000000000000000000000000000000081526004016115ea91906124e3565b60405180910390fd5b80600560008573ffffffffffffffffffffffffffffffffffffffff1673ffffffffffffffffffffffffffffffffffffffff16815260200190815260200160002060008473ffffffffffffffffffffffffffffffffffffffff1673ffffffffffffffffffffffffffffffffffffffff16815260200190815260200160002060006101000a81548160ff0219169083151502179055508173ffffffffffffffffffffffffffffffffffffffff168373ffffffffffffffffffffffffffffffffffffffff167f17307eab39ab6107e8899845ad3d59bd9653f200f220920489ca2b5937696c31836040516116e491906122c2565b60405180910390a3505050565b60008373ffffffffffffffffffffffffffffffffffffffff163b111561189b578273ffffffffffffffffffffffffffffffffffffffff1663150b7a02868685856040518563ffffffff1660e01b81526004016117509493929190612dc0565b6020604051808303816000875af192505050801561178c57506040513d601f19601f820116820180604052508101906117899190612e21565b60015b611810573d80600081146117bc576040519150601f19603f3d011682016040523d82523d6000602084013e6117c1565b606091505b50600081510361180857836040517f64a0ae920000000000000000000000000000000000000000000000000000000081526004016117ff91906124e3565b60405180910390fd5b805181602001fd5b63150b7a0260e01b7bffffffffffffffffffffffffffffffffffffffffffffffffffffffff1916817bffffffffffffffffffffffffffffffffffffffffffffffffffffffff19161461189957836040517f64a0ae9200000000000000000000000000000000000000000000000000000000815260040161189091906124e3565b60405180910390fd5b505b5050505050565b606060405180602001604052806000815250905090565b60606118c482610fa2565b5060006118cf6118a2565b905060008151116118ef576040518060200160405280600081525061191a565b806118f984611cc3565b60405160200161190a929190612c3b565b6040516020818303038152906040525b915050919050565b61193c828260405180602001604052806000815250611d91565b5050565b806006600084815260200190815260200160002090816119609190612ff0565b507ff8e1a15aba9398e019f0b49df1a4fde98ee17ae345cb5f6b5e2c27f5033e8ce7826040516119909190612689565b60405180910390a15050565b6000634906490660e01b7bffffffffffffffffffffffffffffffffffffffffffffffffffffffff1916827bffffffffffffffffffffffffffffffffffffffffffffffffffffffff191614806119f657506119f582611db5565b5b9050919050565b60006002600083815260200190815260200160002060009054906101000a900473ffffffffffffffffffffffffffffffffffffffff169050919050565b8080611a735750600073ffffffffffffffffffffffffffffffffffffffff168273ffffffffffffffffffffffffffffffffffffffff1614155b15611ba7576000611a8384610fa2565b9050600073ffffffffffffffffffffffffffffffffffffffff168373ffffffffffffffffffffffffffffffffffffffff1614158015611aee57508273ffffffffffffffffffffffffffffffffffffffff168173ffffffffffffffffffffffffffffffffffffffff1614155b8015611b015750611aff8184610be5565b155b15611b4357826040517fa9fbf51f000000000000000000000000000000000000000000000000000000008152600401611b3a91906124e3565b60405180910390fd5b8115611ba557838573ffffffffffffffffffffffffffffffffffffffff168273ffffffffffffffffffffffffffffffffffffffff167f8c5be1e5ebec7d5bd14f71427d1e84f3dd0314c0f7b2291e5b200ac8c7c3b92560405160405180910390a45b505b836004600085815260200190815260200160002060006101000a81548173ffffffffffffffffffffffffffffffffffffffff021916908373ffffffffffffffffffffffffffffffffffffffff16021790555050505050565b611c0a838383611e97565b611cbe57600073ffffffffffffffffffffffffffffffffffffffff168373ffffffffffffffffffffffffffffffffffffffff1603611c7f57806040517f7e273289000000000000000000000000000000000000000000000000000000008152600401611c769190612689565b60405180910390fd5b81816040517f177e802f000000000000000000000000000000000000000000000000000000008152600401611cb59291906125e0565b60405180910390fd5b505050565b606060006001611cd284611f58565b01905060008167ffffffffffffffff811115611cf157611cf061271a565b5b6040519080825280601f01601f191660200182016040528015611d235781602001600182028036833780820191505090505b509050600082602001820190505b600115611d86578080600190039150507f3031323334353637383961626364656600000000000000000000000000000000600a86061a8153600a8581611d7a57611d79612b9f565b5b04945060008503611d31575b819350505050919050565b611d9b83836120ab565b611db0611da6611067565b60008585856116f1565b505050565b60007f80ac58cd000000000000000000000000000000000000000000000000000000007bffffffffffffffffffffffffffffffffffffffffffffffffffffffff1916827bffffffffffffffffffffffffffffffffffffffffffffffffffffffff19161480611e8057507f5b5e139f000000000000000000000000000000000000000000000000000000007bffffffffffffffffffffffffffffffffffffffffffffffffffffffff1916827bffffffffffffffffffffffffffffffffffffffffffffffffffffffff1916145b80611e905750611e8f826121a4565b5b9050919050565b60008073ffffffffffffffffffffffffffffffffffffffff168373ffffffffffffffffffffffffffffffffffffffff1614158015611f4f57508273ffffffffffffffffffffffffffffffffffffffff168473ffffffffffffffffffffffffffffffffffffffff161480611f105750611f0f8484610be5565b5b80611f4e57508273ffffffffffffffffffffffffffffffffffffffff16611f368361102a565b73ffffffffffffffffffffffffffffffffffffffff16145b5b90509392505050565b600080600090507a184f03e93ff9f4daa797ed6e38ed64bf6a1f0100000000000000008310611fb6577a184f03e93ff9f4daa797ed6e38ed64bf6a1f0100000000000000008381611fac57611fab612b9f565b5b0492506040810190505b6d04ee2d6d415b85acef81000000008310611ff3576d04ee2d6d415b85acef81000000008381611fe957611fe8612b9f565b5b0492506020810190505b662386f26fc10000831061202257662386f26fc10000838161201857612017612b9f565b5b0492506010810190505b6305f5e100831061204b576305f5e100838161204157612040612b9f565b5b0492506008810190505b612710831061207057612710838161206657612065612b9f565b5b0492506004810190505b60648310612093576064838161208957612088612b9f565b5b0492506002810190505b600a83106120a2576001810190505b80915050919050565b600073ffffffffffffffffffffffffffffffffffffffff168273ffffffffffffffffffffffffffffffffffffffff160361211d5760006040517f64a0ae9200000000000000000000000000000000000000000000000000000000815260040161211491906124e3565b60405180910390fd5b600061212b83836000611081565b9050600073ffffffffffffffffffffffffffffffffffffffff168173ffffffffffffffffffffffffffffffffffffffff161461219f5760006040517f73c6ac6e00000000000000000000000000000000000000000000000000000000815260040161219691906124e3565b60405180910390fd5b505050565b60007f01ffc9a7000000000000000000000000000000000000000000000000000000007bffffffffffffffffffffffffffffffffffffffffffffffffffffffff1916827bffffffffffffffffffffffffffffffffffffffffffffffffffffffff1916149050919050565b6000604051905090565b600080fd5b600080fd5b60007fffffffff0000000000000000000000000000000000000000000000000000000082169050919050565b61225781612222565b811461226257600080fd5b50565b6000813590506122748161224e565b92915050565b6000602082840312156122905761228f612218565b5b600061229e84828501612265565b91505092915050565b60008115159050919050565b6122bc816122a7565b82525050565b60006020820190506122d760008301846122b3565b92915050565b600073ffffffffffffffffffffffffffffffffffffffff82169050919050565b6000612308826122dd565b9050919050565b612318816122fd565b811461232357600080fd5b50565b6000813590506123358161230f565b92915050565b60006bffffffffffffffffffffffff82169050919050565b61235c8161233b565b811461236757600080fd5b50565b60008135905061237981612353565b92915050565b6000806040838503121561239657612395612218565b5b60006123a485828601612326565b92505060206123b58582860161236a565b9150509250929050565b600081519050919050565b600082825260208201905092915050565b60005b838110156123f95780820151818401526020810190506123de565b60008484015250505050565b6000601f19601f8301169050919050565b6000612421826123bf565b61242b81856123ca565b935061243b8185602086016123db565b61244481612405565b840191505092915050565b600060208201905081810360008301526124698184612416565b905092915050565b6000819050919050565b61248481612471565b811461248f57600080fd5b50565b6000813590506124a18161247b565b92915050565b6000602082840312156124bd576124bc612218565b5b60006124cb84828501612492565b91505092915050565b6124dd816122fd565b82525050565b60006020820190506124f860008301846124d4565b92915050565b6000806040838503121561251557612514612218565b5b600061252385828601612326565b925050602061253485828601612492565b9150509250929050565b60008060006060848603121561255757612556612218565b5b600061256586828701612326565b935050602061257686828701612326565b925050604061258786828701612492565b9150509250925092565b600080604083850312156125a8576125a7612218565b5b60006125b685828601612492565b92505060206125c785828601612492565b9150509250929050565b6125da81612471565b82525050565b60006040820190506125f560008301856124d4565b61260260208301846125d1565b9392505050565b60008060006060848603121561262257612621612218565b5b600061263086828701612492565b935050602061264186828701612326565b92505060406126528682870161236a565b9150509250925092565b60006020828403121561267257612671612218565b5b600061268084828501612326565b91505092915050565b600060208201905061269e60008301846125d1565b92915050565b6126ad816122a7565b81146126b857600080fd5b50565b6000813590506126ca816126a4565b92915050565b600080604083850312156126e7576126e6612218565b5b60006126f585828601612326565b9250506020612706858286016126bb565b9150509250929050565b600080fd5b600080fd5b7f4e487b7100000000000000000000000000000000000000000000000000000000600052604160045260246000fd5b61275282612405565b810181811067ffffffffffffffff821117156127715761277061271a565b5b80604052505050565b600061278461220e565b90506127908282612749565b919050565b600067ffffffffffffffff8211156127b0576127af61271a565b5b6127b982612405565b9050602081019050919050565b82818337600083830152505050565b60006127e86127e384612795565b61277a565b90508281526020810184848401111561280457612803612715565b5b61280f8482856127c6565b509392505050565b600082601f83011261282c5761282b612710565b5b813561283c8482602086016127d5565b91505092915050565b6000806000806080858703121561285f5761285e612218565b5b600061286d87828801612326565b945050602061287e87828801612326565b935050604061288f87828801612492565b925050606085013567ffffffffffffffff8111156128b0576128af61221d565b5b6128bc87828801612817565b91505092959194509250565b600067ffffffffffffffff8211156128e3576128e261271a565b5b6128ec82612405565b9050602081019050919050565b600061290c612907846128c8565b61277a565b90508281526020810184848401111561292857612927612715565b5b6129338482856127c6565b509392505050565b600082601f8301126129505761294f612710565b5b81356129608482602086016128f9565b91505092915050565b600080604083850312156129805761297f612218565b5b600061298e85828601612326565b925050602083013567ffffffffffffffff8111156129af576129ae61221d565b5b6129bb8582860161293b565b9150509250929050565b600080604083850312156129dc576129db612218565b5b60006129ea85828601612326565b92505060206129fb85828601612326565b9150509250929050565b7f4d794e46543a20526f79616c7479207265636569766572206973207a65726f2060008201527f6164647265737300000000000000000000000000000000000000000000000000602082015250565b6000612a616027836123ca565b9150612a6c82612a05565b604082019050919050565b60006020820190508181036000830152612a9081612a54565b9050919050565b7f4e487b7100000000000000000000000000000000000000000000000000000000600052602260045260246000fd5b60006002820490506001821680612ade57607f821691505b602082108103612af157612af0612a97565b5b50919050565b6000606082019050612b0c60008301866124d4565b612b1960208301856125d1565b612b2660408301846124d4565b949350505050565b7f4e487b7100000000000000000000000000000000000000000000000000000000600052601160045260246000fd5b6000612b6882612471565b9150612b7383612471565b9250828202612b8181612471565b91508282048414831517612b9857612b97612b2e565b5b5092915050565b7f4e487b7100000000000000000000000000000000000000000000000000000000600052601260045260246000fd5b6000612bd982612471565b9150612be483612471565b925082612bf457612bf3612b9f565b5b828204905092915050565b600081905092915050565b6000612c15826123bf565b612c1f8185612bff565b9350612c2f8185602086016123db565b80840191505092915050565b6000612c478285612c0a565b9150612c538284612c0a565b91508190509392505050565b6000612c6a82612471565b91507fffffffffffffffffffffffffffffffffffffffffffffffffffffffffffffffff8203612c9c57612c9b612b2e565b5b600182019050919050565b6000819050919050565b6000612ccc612cc7612cc28461233b565b612ca7565b612471565b9050919050565b612cdc81612cb1565b82525050565b6000604082019050612cf76000830185612cd3565b612d0460208301846125d1565b9392505050565b6000606082019050612d2060008301866125d1565b612d2d6020830185612cd3565b612d3a60408301846125d1565b949350505050565b6000604082019050612d5760008301856125d1565b612d6460208301846124d4565b9392505050565b600081519050919050565b600082825260208201905092915050565b6000612d9282612d6b565b612d9c8185612d76565b9350612dac8185602086016123db565b612db581612405565b840191505092915050565b6000608082019050612dd560008301876124d4565b612de260208301866124d4565b612def60408301856125d1565b8181036060830152612e018184612d87565b905095945050505050565b600081519050612e1b8161224e565b92915050565b600060208284031215612e3757612e36612218565b5b6000612e4584828501612e0c565b91505092915050565b60008190508160005260206000209050919050565b60006020601f8301049050919050565b600082821b905092915050565b600060088302612eb07fffffffffffffffffffffffffffffffffffffffffffffffffffffffffffffffff82612e73565b612eba8683612e73565b95508019841693508086168417925050509392505050565b6000612eed612ee8612ee384612471565b612ca7565b612471565b9050919050565b6000819050919050565b612f0783612ed2565b612f1b612f1382612ef4565b848454612e80565b825550505050565b600090565b612f30612f23565b612f3b818484612efe565b505050565b5b81811015612f5f57612f54600082612f28565b600181019050612f41565b5050565b601f821115612fa457612f7581612e4e565b612f7e84612e63565b81016020851015612f8d578190505b612fa1612f9985612e63565b830182612f40565b50505b505050565b600082821c905092915050565b6000612fc760001984600802612fa9565b1980831691505092915050565b6000612fe08383612fb6565b9150826002028217905092915050565b612ff9826123bf565b67ffffffffffffffff8111156130125761301161271a565b5b61301c8254612ac6565b613027828285612f63565b600060209050601f83116001811461305a5760008415613048578287015190505b6130528582612fd4565b8655506130ba565b601f19841661306886612e4e565b60005b828110156130905784890151825560018201915060208501945060208101905061306b565b868310156130ad57848901516130a9601f891682612fb6565b8355505b6001600288020188555050505b50505050505056fea26469706673582212206393de74f4eee2c34fe4339fb5ec1dcf21e20244ab81d41e1b58d008ebdd45f564736f6c63430008140033",
  "linkReferences": {},
  "deployedLinkReferences": {}
}