{
  "_format": "hh-sol-artifact-1",
  "contractName": "MyNFT",
  "sourceName": "contracts/MyNFT.sol",
  "abi": [
    {
      "inputs": [],
      "stateMutability": "nonpayable",
      "type": "constructor"
    },
    {
      "inputs": [
        {
          "internalType": "address",
          "name": "sender",
          "type": "address"
        },
        {
          "internalType": "uint256",
          "name": "tokenId",
          "type": "uint256"
        },
        {
          "internalType": "address",
          "name": "owner",
          "type": "address"
        }
      ],
      "name": "ERC721IncorrectOwner",
      "type": "error"
    },
    {
      "inputs": [
        {
          "internalType": "address",
          "name": "operator",
          "type": "address"
        },
        {
          "internalType": "uint256",
          "name": "tokenId",
          "type": "uint256"
        }
      ],
      "name": "ERC721InsufficientApproval",
      "type": "error"
    },
    {
      "inputs": [
        {
          "internalType": "address",
          "name": "approver",
          "type": "address"
        }
      ],
      "name": "ERC721InvalidApprover",
      "type": "error"
    },
    {
      "inputs": [
        {
          "internalType": "address",
          "name": "operator",
          "type": "address"
        }
      ],
      "name": "ERC721InvalidOperator",
      "type": "error"
    },
    {
      "inputs": [
        {
          "internalType": "address",
          "name": "owner",
          "type": "address"
        }
      ],
      "name": "ERC721InvalidOwner",
      "type": "error"
    },
    {
      "inputs": [
        {
          "internalType": "address",
          "name": "receiver",
          "type": "address"
        }
      ],
      "name": "ERC721InvalidReceiver",
      "type": "error"
    },
    {
      "inputs": [
        {
          "internalType": "address",
          "name": "sender",
          "type": "address"
        }
      ],
      "name": "ERC721InvalidSender",
      "type": "error"
    },
    {
      "inputs": [
        {
          "internalType": "uint256",
          "name": "tokenId",
          "type": "uint256"
        }
      ],
      "name": "ERC721NonexistentToken",
      "type": "error"
    },
    {
      "anonymous": false,
      "inputs": [
        {
          "indexed": true,
          "internalType": "address",
          "name": "owner",
          "type": "address"
        },
        {
          "indexed": true,
          "internalType": "address",
          "name": "approved",
          "type": "address"
        },
        {
          "indexed": true,
          "internalType": "uint256",
          "name": "tokenId",
          "type": "uint256"
        }
      ],
      "name": "Approval",
      "type": "event"
    },
    {
      "anonymous": false,
      "inputs": [
        {
          "indexed": true,
          "internalType": "address",
          "name": "owner",
          "type": "address"
        },
        {
          "indexed": true,
          "internalType": "address",
          "name": "operator",
          "type": "address"
        },
        {
          "indexed": false,
          "internalType": "bool",
          "name": "approved",
          "type": "bool"
        }
      ],
      "name": "ApprovalForAll",
      "type": "event"
    },
    {
      "anonymous": false,
      "inputs": [
        {
          "indexed": false,
          "internalType": "uint256",
          "name": "_fromTokenId",
          "type": "uint256"
        },
        {
          "indexed": false,
          "internalType": "uint256",
          "name": "_toTokenId",
          "type": "uint256"
        }
      ],
      "name": "BatchMetadataUpdate",
      "type": "event"
    },
    {
      "anonymous": false,
      "inputs": [
        {
          "indexed": false,
          "internalType": "uint256",
          "name": "_tokenId",
          "type": "uint256"
        }
      ],
      "name": "MetadataUpdate",
      "type": "event"
    },
    {
      "anonymous": false,
      "inputs": [
        {
          "indexed": true,
          "internalType": "address",
          "name": "from",
          "type": "address"
        },
        {
          "indexed": true,
          "internalType": "address",
          "name": "to",
          "type": "address"
        },
        {
          "indexed": true,
          "internalType": "uint256",
          "name": "tokenId",
          "type": "uint256"
        }
      ],
      "name": "Transfer",
      "type": "event"
    },
    {
      "inputs": [
        {
          "internalType": "address",
          "name": "to",
          "type": "address"
        },
        {
          "internalType": "uint256",
          "name": "tokenId",
          "type": "uint256"
        }
      ],
      "name": "approve",
      "outputs": [],
      "stateMutability": "nonpayable",
      "type": "function"
    },
    {
      "inputs": [
        {
          "internalType": "address",
          "name": "owner",
          "type": "address"
        }
      ],
      "name": "balanceOf",
      "outputs": [
        {
          "internalType": "uint256",
          "name": "",
          "type": "uint256"
        }
      ],
      "stateMutability": "view",
      "type": "function"
    },
    {
      "inputs": [
        {
          "internalType": "uint256",
          "name": "tokenId",
          "type": "uint256"
        }
      ],
      "name": "getApproved",
      "outputs": [
        {
          "internalType": "address",
          "name": "",
          "type": "address"
        }
      ],
      "stateMutability": "view",
      "type": "function"
    },
    {
      "inputs": [
        {
          "internalType": "address",
          "name": "owner",
          "type": "address"
        },
        {
          "internalType": "address",
          "name": "operator",
          "type": "address"
        }
      ],
      "name": "isApprovedForAll",
      "outputs": [
        {
          "internalType": "bool",
          "name": "",
          "type": "bool"
        }
      ],
      "stateMutability": "view",
      "type": "function"
    },
    {
      "inputs": [],
      "name": "name",
      "outputs": [
        {
          "internalType": "string",
          "name": "",
          "type": "string"
        }
      ],
      "stateMutability": "view",
      "type": "function"
    },
    {
      "inputs": [
        {
          "internalType": "uint256",
          "name": "tokenId",
          "type": "uint256"
        }
      ],
      "name": "ownerOf",
      "outputs": [
        {
          "internalType": "address",
          "name": "",
          "type": "address"
        }
      ],
      "stateMutability": "view",
      "type": "function"
    },
    {
      "inputs": [
        {
          "internalType": "address",
          "name": "recipient",
          "type": "address"
        },
        {
          "internalType": "string",
          "name": "tokenURI",
          "type": "string"
        }
      ],
      "name": "safeMint",
      "outputs": [
        {
          "internalType": "uint256",
          "name": "",
          "type": "uint256"
        }
      ],
      "stateMutability": "nonpayable",
      "type": "function"
    },
    {
      "inputs": [
        {
          "internalType": "address",
          "name": "from",
          "type": "address"
        },
        {
          "internalType": "address",
          "name": "to",
          "type": "address"
        },
        {
          "internalType": "uint256",
          "name": "tokenId",
          "type": "uint256"
        }
      ],
      "name": "safeTransferFrom",
      "outputs": [],
      "stateMutability": "nonpayable",
      "type": "function"
    },
    {
      "inputs": [
        {
          "internalType": "address",
          "name": "from",
          "type": "address"
        },
        {
          "internalType": "address",
          "name": "to",
          "type": "address"
        },
        {
          "internalType": "uint256",
          "name": "tokenId",
          "type": "uint256"
        },
        {
          "internalType": "bytes",
          "name": "data",
          "type": "bytes"
        }
      ],
      "name": "safeTransferFrom",
      "outputs": [],
      "stateMutability": "nonpayable",
      "type": "function"
    },
    {
      "inputs": [
        {
          "internalType": "address",
          "name": "operator",
          "type": "address"
        },
        {
          "internalType": "bool",
          "name": "approved",
          "type": "bool"
        }
      ],
      "name": "setApprovalForAll",
      "outputs": [],
      "stateMutability": "nonpayable",
      "type": "function"
    },
    {
      "inputs": [
        {
          "internalType": "bytes4",
          "name": "interfaceId",
          "type": "bytes4"
        }
      ],
      "name": "supportsInterface",
      "outputs": [
        {
          "internalType": "bool",
          "name": "",
          "type": "bool"
        }
      ],
      "stateMutability": "view",
      "type": "function"
    },
    {
      "inputs": [],
      "name": "symbol",
      "outputs": [
        {
          "internalType": "string",
          "name": "",
          "type": "string"
        }
      ],
      "stateMutability": "view",
      "type": "function"
    },
    {
      "inputs": [
        {
          "internalType": "uint256",
          "name": "tokenId",
          "type": "uint256"
        }
      ],
      "name": "tokenURI",
      "outputs": [
        {
          "internalType": "string",
          "name": "",
          "type": "string"
        }
      ],
      "stateMutability": "view",
      "type": "function"
    },
    {
      "inputs": [
        {
          "internalType": "address",
          "name": "from",
          "type": "address"
        },
        {
          "internalType": "address",
          "name": "to",
          "type": "address"
        },
        {
          "internalType": "uint256",
          "name": "tokenId",
          "type": "uint256"
        }
      ],
      "name": "transferFrom",
      "outputs": [],
      "stateMutability": "nonpayable",
      "type": "function"
    }
  ],
  "bytecode": "0x608060405260016007553480156200001657600080fd5b506040518060400160405280600581526020017f4d794e46540000000000000000000000000000000000000000000000000000008152506040518060400160405280600481526020017f4d4e465400000000000000000000000000000000000000000000000000000000815250816000908162000094919062000329565b508060019081620000a6919062000329565b50505062000410565b600081519050919050565b7f4e487b7100000000000000000000000000000000000000000000000000000000600052604160045260246000fd5b7f4e487b7100000000000000000000000000000000000000000000000000000000600052602260045260246000fd5b600060028204905060018216806200013157607f821691505b602082108103620001475762000146620000e9565b5b50919050565b60008190508160005260206000209050919050565b60006020601f8301049050919050565b600082821b905092915050565b600060088302620001b17fffffffffffffffffffffffffffffffffffffffffffffffffffffffffffffffff8262000172565b620001bd868362000172565b95508019841693508086168417925050509392505050565b6000819050919050565b6000819050919050565b60006200020a62000204620001fe84620001d5565b620001df565b620001d5565b9050919050565b6000819050919050565b6200022683620001e9565b6200023e620002358262000211565b8484546200017f565b825550505050565b600090565b6200025562000246565b620002628184846200021b565b505050565b5b818110156200028a576200027e6000826200024b565b60018101905062000268565b5050565b601f821115620002d957620002a3816200014d565b620002ae8462000162565b81016020851015620002be578190505b620002d6620002cd8562000162565b83018262000267565b50505b505050565b600082821c905092915050565b6000620002fe60001984600802620002de565b1980831691505092915050565b6000620003198383620002eb565b9150826002028217905092915050565b6200033482620000af565b67ffffffffffffffff81111562000350576200034f620000ba565b5b6200035c825462000118565b620003698282856200028e565b600060209050601f831160018114620003a157600084156200038c578287015190505b6200039885826200030b565b86555062000408565b601f198416620003b1866200014d565b60005b82811015620003db57848901518255600182019150602085019450602081019050620003b4565b86831015620003fb5784890151620003f7601f891682620002eb565b8355505b6001600288020188555050505b505050505050565b6123f280620004206000396000f3fe608060405234801561001057600080fd5b50600436106100ea5760003560e01c806370a082311161008c578063b88d4fde11610066578063b88d4fde1461025b578063c87b56dd14610277578063d204c45e146102a7578063e985e9c5146102d7576100ea565b806370a08231146101f157806395d89b4114610221578063a22cb4651461023f576100ea565b8063095ea7b3116100c8578063095ea7b31461016d57806323b872dd1461018957806342842e0e146101a55780636352211e146101c1576100ea565b806301ffc9a7146100ef57806306fdde031461011f578063081812fc1461013d575b600080fd5b6101096004803603810190610104919061185e565b610307565b60405161011691906118a6565b60405180910390f35b610127610368565b6040516101349190611951565b60405180910390f35b610157600480360381019061015291906119a9565b6103fa565b6040516101649190611a17565b60405180910390f35b61018760048036038101906101829190611a5e565b610416565b005b6101a3600480360381019061019e9190611a9e565b61042c565b005b6101bf60048036038101906101ba9190611a9e565b61052e565b005b6101db60048036038101906101d691906119a9565b61054e565b6040516101e89190611a17565b60405180910390f35b61020b60048036038101906102069190611af1565b610560565b6040516102189190611b2d565b60405180910390f35b61022961061a565b6040516102369190611951565b60405180910390f35b61025960048036038101906102549190611b74565b6106ac565b005b61027560048036038101906102709190611ce9565b6106c2565b005b610291600480360381019061028c91906119a9565b6106e7565b60405161029e9190611951565b60405180910390f35b6102c160048036038101906102bc9190611e0d565b6107fa565b6040516102ce9190611b2d565b60405180910390f35b6102f160048036038101906102ec9190611e69565b61083a565b6040516102fe91906118a6565b60405180910390f35b6000634906490660e01b7bffffffffffffffffffffffffffffffffffffffffffffffffffffffff1916827bffffffffffffffffffffffffffffffffffffffffffffffffffffffff191614806103615750610360826108ce565b5b9050919050565b60606000805461037790611ed8565b80601f01602080910402602001604051908101604052809291908181526020018280546103a390611ed8565b80156103f05780601f106103c5576101008083540402835291602001916103f0565b820191906000526020600020905b8154815290600101906020018083116103d357829003601f168201915b5050505050905090565b6000610405826109b0565b5061040f82610a38565b9050919050565b6104288282610423610a75565b610a7d565b5050565b600073ffffffffffffffffffffffffffffffffffffffff168273ffffffffffffffffffffffffffffffffffffffff160361049e5760006040517f64a0ae920000000000000000000000000000000000000000000000000000000081526004016104959190611a17565b60405180910390fd5b60006104b283836104ad610a75565b610a8f565b90508373ffffffffffffffffffffffffffffffffffffffff168173ffffffffffffffffffffffffffffffffffffffff1614610528578382826040517f64283d7b00000000000000000000000000000000000000000000000000000000815260040161051f93929190611f09565b60405180910390fd5b50505050565b610549838383604051806020016040528060008152506106c2565b505050565b6000610559826109b0565b9050919050565b60008073ffffffffffffffffffffffffffffffffffffffff168273ffffffffffffffffffffffffffffffffffffffff16036105d35760006040517f89c62b640000000000000000000000000000000000000000000000000000000081526004016105ca9190611a17565b60405180910390fd5b600360008373ffffffffffffffffffffffffffffffffffffffff1673ffffffffffffffffffffffffffffffffffffffff168152602001908152602001600020549050919050565b60606001805461062990611ed8565b80601f016020809104026020016040519081016040528092919081815260200182805461065590611ed8565b80156106a25780601f10610677576101008083540402835291602001916106a2565b820191906000526020600020905b81548152906001019060200180831161068557829003601f168201915b5050505050905090565b6106be6106b7610a75565b8383610ca9565b5050565b6106cd84848461042c565b6106e16106d8610a75565b85858585610e18565b50505050565b60606106f2826109b0565b50600060066000848152602001908152602001600020805461071390611ed8565b80601f016020809104026020016040519081016040528092919081815260200182805461073f90611ed8565b801561078c5780601f106107615761010080835404028352916020019161078c565b820191906000526020600020905b81548152906001019060200180831161076f57829003601f168201915b50505050509050600061079d610fc9565b905060008151036107b25781925050506107f5565b6000825111156107e75780826040516020016107cf929190611f7c565b604051602081830303815290604052925050506107f5565b6107f084610fe0565b925050505b919050565b600080600754905061080c8482611049565b6108168184611067565b6001600760008282546108299190611fcf565b925050819055508091505092915050565b6000600560008473ffffffffffffffffffffffffffffffffffffffff1673ffffffffffffffffffffffffffffffffffffffff16815260200190815260200160002060008373ffffffffffffffffffffffffffffffffffffffff1673ffffffffffffffffffffffffffffffffffffffff16815260200190815260200160002060009054906101000a900460ff16905092915050565b60007f80ac58cd000000000000000000000000000000000000000000000000000000007bffffffffffffffffffffffffffffffffffffffffffffffffffffffff1916827bffffffffffffffffffffffffffffffffffffffffffffffffffffffff1916148061099957507f5b5e139f000000000000000000000000000000000000000000000000000000007bffffffffffffffffffffffffffffffffffffffffffffffffffffffff1916827bffffffffffffffffffffffffffffffffffffffffffffffffffffffff1916145b806109a957506109a8826110c3565b5b9050919050565b6000806109bc8361112d565b9050600073ffffffffffffffffffffffffffffffffffffffff168173ffffffffffffffffffffffffffffffffffffffff1603610a2f57826040517f7e273289000000000000000000000000000000000000000000000000000000008152600401610a269190611b2d565b60405180910390fd5b80915050919050565b60006004600083815260200190815260200160002060009054906101000a900473ffffffffffffffffffffffffffffffffffffffff169050919050565b600033905090565b610a8a838383600161116a565b505050565b600080610a9b8461112d565b9050600073ffffffffffffffffffffffffffffffffffffffff168373ffffffffffffffffffffffffffffffffffffffff1614610add57610adc81848661132f565b5b600073ffffffffffffffffffffffffffffffffffffffff168173ffffffffffffffffffffffffffffffffffffffff1614610b6e57610b1f60008560008061116a565b6001600360008373ffffffffffffffffffffffffffffffffffffffff1673ffffffffffffffffffffffffffffffffffffffff168152602001908152602001600020600082825403925050819055505b600073ffffffffffffffffffffffffffffffffffffffff168573ffffffffffffffffffffffffffffffffffffffff1614610bf1576001600360008773ffffffffffffffffffffffffffffffffffffffff1673ffffffffffffffffffffffffffffffffffffffff168152602001908152602001600020600082825401925050819055505b846002600086815260200190815260200160002060006101000a81548173ffffffffffffffffffffffffffffffffffffffff021916908373ffffffffffffffffffffffffffffffffffffffff160217905550838573ffffffffffffffffffffffffffffffffffffffff168273ffffffffffffffffffffffffffffffffffffffff167fddf252ad1be2c89b69c2b068fc378daa952ba7f163c4a11628f55a4df523b3ef60405160405180910390a4809150509392505050565b600073ffffffffffffffffffffffffffffffffffffffff168273ffffffffffffffffffffffffffffffffffffffff1603610d1a57816040517f5b08ba18000000000000000000000000000000000000000000000000000000008152600401610d119190611a17565b60405180910390fd5b80600560008573ffffffffffffffffffffffffffffffffffffffff1673ffffffffffffffffffffffffffffffffffffffff16815260200190815260200160002060008473ffffffffffffffffffffffffffffffffffffffff1673ffffffffffffffffffffffffffffffffffffffff16815260200190815260200160002060006101000a81548160ff0219169083151502179055508173ffffffffffffffffffffffffffffffffffffffff168373ffffffffffffffffffffffffffffffffffffffff167f17307eab39ab6107e8899845ad3d59bd9653f200f220920489ca2b5937696c3183604051610e0b91906118a6565b60405180910390a3505050565b60008373ffffffffffffffffffffffffffffffffffffffff163b1115610fc2578273ffffffffffffffffffffffffffffffffffffffff1663150b7a02868685856040518563ffffffff1660e01b8152600401610e779493929190612058565b6020604051808303816000875af1925050508015610eb357506040513d601f19601f82011682018060405250810190610eb091906120b9565b60015b610f37573d8060008114610ee3576040519150601f19603f3d011682016040523d82523d6000602084013e610ee8565b606091505b506000815103610f2f57836040517f64a0ae92000000000000000000000000000000000000000000000000000000008152600401610f269190611a17565b60405180910390fd5b805181602001fd5b63150b7a0260e01b7bffffffffffffffffffffffffffffffffffffffffffffffffffffffff1916817bffffffffffffffffffffffffffffffffffffffffffffffffffffffff191614610fc057836040517f64a0ae92000000000000000000000000000000000000000000000000000000008152600401610fb79190611a17565b60405180910390fd5b505b5050505050565b606060405180602001604052806000815250905090565b6060610feb826109b0565b506000610ff6610fc9565b905060008151116110165760405180602001604052806000815250611041565b80611020846113f3565b604051602001611031929190611f7c565b6040516020818303038152906040525b915050919050565b6110638282604051806020016040528060008152506114c1565b5050565b806006600084815260200190815260200160002090816110879190612292565b507ff8e1a15aba9398e019f0b49df1a4fde98ee17ae345cb5f6b5e2c27f5033e8ce7826040516110b79190611b2d565b60405180910390a15050565b60007f01ffc9a7000000000000000000000000000000000000000000000000000000007bffffffffffffffffffffffffffffffffffffffffffffffffffffffff1916827bffffffffffffffffffffffffffffffffffffffffffffffffffffffff1916149050919050565b60006002600083815260200190815260200160002060009054906101000a900473ffffffffffffffffffffffffffffffffffffffff169050919050565b80806111a35750600073ffffffffffffffffffffffffffffffffffffffff168273ffffffffffffffffffffffffffffffffffffffff1614155b156112d75760006111b3846109b0565b9050600073ffffffffffffffffffffffffffffffffffffffff168373ffffffffffffffffffffffffffffffffffffffff161415801561121e57508273ffffffffffffffffffffffffffffffffffffffff168173ffffffffffffffffffffffffffffffffffffffff1614155b8015611231575061122f818461083a565b155b1561127357826040517fa9fbf51f00000000000000000000000000000000000000000000000000000000815260040161126a9190611a17565b60405180910390fd5b81156112d557838573ffffffffffffffffffffffffffffffffffffffff168273ffffffffffffffffffffffffffffffffffffffff167f8c5be1e5ebec7d5bd14f71427d1e84f3dd0314c0f7b2291e5b200ac8c7c3b92560405160405180910390a45b505b836004600085815260200190815260200160002060006101000a81548173ffffffffffffffffffffffffffffffffffffffff021916908373ffffffffffffffffffffffffffffffffffffffff16021790555050505050565b61133a8383836114e5565b6113ee57600073ffffffffffffffffffffffffffffffffffffffff168373ffffffffffffffffffffffffffffffffffffffff16036113af57806040517f7e2732890000000000000000000000000000000000000000000000000000000081526004016113a69190611b2d565b60405180910390fd5b81816040517f177e802f0000000000000000000000000000000000000000000000000000000081526004016113e5929190612364565b60405180910390fd5b505050565b606060006001611402846115a6565b01905060008167ffffffffffffffff81111561142157611420611bbe565b5b6040519080825280601f01601f1916602001820160405280156114535781602001600182028036833780820191505090505b509050600082602001820190505b6001156114b6578080600190039150507f3031323334353637383961626364656600000000000000000000000000000000600a86061a8153600a85816114aa576114a961238d565b5b04945060008503611461575b819350505050919050565b6114cb83836116f9565b6114e06114d6610a75565b6000858585610e18565b505050565b60008073ffffffffffffffffffffffffffffffffffffffff168373ffffffffffffffffffffffffffffffffffffffff161415801561159d57508273ffffffffffffffffffffffffffffffffffffffff168473ffffffffffffffffffffffffffffffffffffffff16148061155e575061155d848461083a565b5b8061159c57508273ffffffffffffffffffffffffffffffffffffffff1661158483610a38565b73ffffffffffffffffffffffffffffffffffffffff16145b5b90509392505050565b600080600090507a184f03e93ff9f4daa797ed6e38ed64bf6a1f0100000000000000008310611604577a184f03e93ff9f4daa797ed6e38ed64bf6a1f01000000000000000083816115fa576115f961238d565b5b0492506040810190505b6d04ee2d6d415b85acef81000000008310611641576d04ee2d6d415b85acef810000000083816116375761163661238d565b5b0492506020810190505b662386f26fc10000831061167057662386f26fc1000083816116665761166561238d565b5b0492506010810190505b6305f5e1008310611699576305f5e100838161168f5761168e61238d565b5b0492506008810190505b61271083106116be5761271083816116b4576116b361238d565b5b0492506004810190505b606483106116e157606483816116d7576116d661238d565b5b0492506002810190505b600a83106116f0576001810190505b80915050919050565b600073ffffffffffffffffffffffffffffffffffffffff168273ffffffffffffffffffffffffffffffffffffffff160361176b5760006040517f64a0ae920000000000000000000000000000000000000000000000000000000081526004016117629190611a17565b60405180910390fd5b600061177983836000610a8f565b9050600073ffffffffffffffffffffffffffffffffffffffff168173ffffffffffffffffffffffffffffffffffffffff16146117ed5760006040517f73c6ac6e0000000000000000000000000000000000000000000000000000000081526004016117e49190611a17565b60405180910390fd5b505050565b6000604051905090565b600080fd5b600080fd5b60007fffffffff0000000000000000000000000000000000000000000000000000000082169050919050565b61183b81611806565b811461184657600080fd5b50565b60008135905061185881611832565b92915050565b600060208284031215611874576118736117fc565b5b600061188284828501611849565b91505092915050565b60008115159050919050565b6118a08161188b565b82525050565b60006020820190506118bb6000830184611897565b92915050565b600081519050919050565b600082825260208201905092915050565b60005b838110156118fb5780820151818401526020810190506118e0565b60008484015250505050565b6000601f19601f8301169050919050565b6000611923826118c1565b61192d81856118cc565b935061193d8185602086016118dd565b61194681611907565b840191505092915050565b6000602082019050818103600083015261196b8184611918565b905092915050565b6000819050919050565b61198681611973565b811461199157600080fd5b50565b6000813590506119a38161197d565b92915050565b6000602082840312156119bf576119be6117fc565b5b60006119cd84828501611994565b91505092915050565b600073ffffffffffffffffffffffffffffffffffffffff82169050919050565b6000611a01826119d6565b9050919050565b611a11816119f6565b82525050565b6000602082019050611a2c6000830184611a08565b92915050565b611a3b816119f6565b8114611a4657600080fd5b50565b600081359050611a5881611a32565b92915050565b60008060408385031215611a7557611a746117fc565b5b6000611a8385828601611a49565b9250506020611a9485828601611994565b9150509250929050565b600080600060608486031215611ab757611ab66117fc565b5b6000611ac586828701611a49565b9350506020611ad686828701611a49565b9250506040611ae786828701611994565b9150509250925092565b600060208284031215611b0757611b066117fc565b5b6000611b1584828501611a49565b91505092915050565b611b2781611973565b82525050565b6000602082019050611b426000830184611b1e565b92915050565b611b518161188b565b8114611b5c57600080fd5b50565b600081359050611b6e81611b48565b92915050565b60008060408385031215611b8b57611b8a6117fc565b5b6000611b9985828601611a49565b9250506020611baa85828601611b5f565b9150509250929050565b600080fd5b600080fd5b7f4e487b7100000000000000000000000000000000000000000000000000000000600052604160045260246000fd5b611bf682611907565b810181811067ffffffffffffffff82111715611c1557611c14611bbe565b5b80604052505050565b6000611c286117f2565b9050611c348282611bed565b919050565b600067ffffffffffffffff821115611c5457611c53611bbe565b5b611c5d82611907565b9050602081019050919050565b82818337600083830152505050565b6000611c8c611c8784611c39565b611c1e565b905082815260208101848484011115611ca857611ca7611bb9565b5b611cb3848285611c6a565b509392505050565b600082601f830112611cd057611ccf611bb4565b5b8135611ce0848260208601611c79565b91505092915050565b60008060008060808587031215611d0357611d026117fc565b5b6000611d1187828801611a49565b9450506020611d2287828801611a49565b9350506040611d3387828801611994565b925050606085013567ffffffffffffffff811115611d5457611d53611801565b5b611d6087828801611cbb565b91505092959194509250565b600067ffffffffffffffff821115611d8757611d86611bbe565b5b611d9082611907565b9050602081019050919050565b6000611db0611dab84611d6c565b611c1e565b905082815260208101848484011115611dcc57611dcb611bb9565b5b611dd7848285611c6a565b509392505050565b600082601f830112611df457611df3611bb4565b5b8135611e04848260208601611d9d565b91505092915050565b60008060408385031215611e2457611e236117fc565b5b6000611e3285828601611a49565b925050602083013567ffffffffffffffff811115611e5357611e52611801565b5b611e5f85828601611ddf565b9150509250929050565b60008060408385031215611e8057611e7f6117fc565b5b6000611e8e85828601611a49565b9250506020611e9f85828601611a49565b9150509250929050565b7f4e487b7100000000000000000000000000000000000000000000000000000000600052602260045260246000fd5b60006002820490506001821680611ef057607f821691505b602082108103611f0357611f02611ea9565b5b50919050565b6000606082019050611f1e6000830186611a08565b611f2b6020830185611b1e565b611f386040830184611a08565b949350505050565b600081905092915050565b6000611f56826118c1565b611f608185611f40565b9350611f708185602086016118dd565b80840191505092915050565b6000611f888285611f4b565b9150611f948284611f4b565b91508190509392505050565b7f4e487b7100000000000000000000000000000000000000000000000000000000600052601160045260246000fd5b6000611fda82611973565b9150611fe583611973565b9250828201905080821115611ffd57611ffc611fa0565b5b92915050565b600081519050919050565b600082825260208201905092915050565b600061202a82612003565b612034818561200e565b93506120448185602086016118dd565b61204d81611907565b840191505092915050565b600060808201905061206d6000830187611a08565b61207a6020830186611a08565b6120876040830185611b1e565b8181036060830152612099818461201f565b905095945050505050565b6000815190506120b381611832565b92915050565b6000602082840312156120cf576120ce6117fc565b5b60006120dd848285016120a4565b91505092915050565b60008190508160005260206000209050919050565b60006020601f8301049050919050565b600082821b905092915050565b6000600883026121487fffffffffffffffffffffffffffffffffffffffffffffffffffffffffffffffff8261210b565b612152868361210b565b95508019841693508086168417925050509392505050565b6000819050919050565b600061218f61218a61218584611973565b61216a565b611973565b9050919050565b6000819050919050565b6121a983612174565b6121bd6121b582612196565b848454612118565b825550505050565b600090565b6121d26121c5565b6121dd8184846121a0565b505050565b5b81811015612201576121f66000826121ca565b6001810190506121e3565b5050565b601f82111561224657612217816120e6565b612220846120fb565b8101602085101561222f578190505b61224361223b856120fb565b8301826121e2565b50505b505050565b600082821c905092915050565b60006122696000198460080261224b565b1980831691505092915050565b60006122828383612258565b9150826002028217905092915050565b61229b826118c1565b67ffffffffffffffff8111156122b4576122b3611bbe565b5b6122be8254611ed8565b6122c9828285612205565b600060209050601f8311600181146122fc57600084156122ea578287015190505b6122f48582612276565b86555061235c565b601f19841661230a866120e6565b60005b828110156123325784890151825560018201915060208501945060208101905061230d565b8683101561234f578489015161234b601f891682612258565b8355505b6001600288020188555050505b505050505050565b60006040820190506123796000830185611a08565b6123866020830184611b1e565b9392505050565b7f4e487b7100000000000000000000000000000000000000000000000000000000600052601260045260246000fdfea2646970667358221220eb1f91914159aebe86d3cefe2a9a4ca476d6bf6e050ca29f08a91107703bf93e64736f6c63430008140033",
  "linkReferences": {},
  "deployedLinkReferences": {}
}